:100000000C94B0030C94A3140C94F7030C94F70312
:100010000C94F7030C94F7030C94F7030C94F70378
:100020000C94F7030C94F7030C947D2C0C944F2D37
:100030000C94B8220C94F7030C94F7030C94F70378
:100040000C94F7030C94F7030C94F7030C94F70348
:100050000C94F7030C9405230C94F7030C94F7030A
:100060000C94F7030C94F7030C94F7030C94F70328
:100070000C94F7030C94F7030C94F7030C94F70318
:100080000C94F7030C94F7030C94F7030C94F70308
:100090000C94F7030C94F7030C94F7030C94F703F8
:1000A0000C94F7030C94F7030C94F703BF0FC20FE3
:1000B000C70FCE0FD30FD80FDD0FE20FE70FEC0FF6
:1000C000F10FF60FF80FFB0FFE0F011004100710D1
:1000D00009100E10681868189A189A18E718051968
:1000E0005D1A5D1A4719DC19ED19ED194D1A5D1AE3
:1000F0005D1A561AF21AF21A041B041BFB1A041B8F
:10010000041B041BF21AF21A001B041B041B001B25
:10011000BC2DE32DDB2EE32DDB2E2F2E522EDB2EDE
:10012000A92EB82E35001E001F002000210022003D
:100130002B0014001A000800150017002900040005
:100140001600070009000A00E1001D001B00060060
:1001500019000500E00005516400E300E2002C00F6
:10016000230024002500260027002A001C00180078
:100170000C00120013002F000B000D000E000F00EA
:1001800033003400110010003600370038008700BB
:100190002800E60003510000650000000100010096
:1001A0000100010001000100010001000100010047
:1001B0000100010001000100010001000100010037
:1001C0000100010001000100010001000100010027
:1001D0000100010001000100010001000100010017
:1001E0000100010001000100010001000100010007
:1001F00001000100010001000100010001000100F7
:1002000001000100010001000100010001000100E6
:100210000100010035001E001F0020002100220007
:100220002B002F003400330013001C0029000400B1
:100230001200080018000C00E100330014000D004B
:100240000E001B000551E000E200E30003512C000A
:10025000230024002500260027002A0009000A00A8
:10026000060015000F004C0007000B0017001100DE
:1002700016000100050010001A0019001D00010001
:10028000010004515000510052004F00350200009F
:10029000000000000000000000000000000000005E
:1002A0000000000000003A003B003C003D003E0022
:1002B00001004000410042004300440001000100F1
:1002C00001000100010001000000460047002D026E
:1002D0002E022A00000049004B00010001003002FC
:1002E0003F004A004E004D0001003202450001006F
:1002F000010001000100010001000100AB00AA00A3
:10030000A900AE0035001E001F00200021002200C1
:1003100035001E001F002000210022004C003A0082
:100320003B003C003D003E00010040004100420017
:100330004300440001000100010001000100010030
:10034000230024002500260027002A002300240083
:100350002500260027004C003F002D002E002F0016
:10036000300031004500320064000100010001004E
:1003700001000100AB00AA00A900AE0000000000CF
:1003800000000000000000000100005CC25CC35CD3
:10039000C65CC55C0100010001001D5C1E5C135CB5
:1003A00001000100640010501150125001000100C2
:1003B0000100E700010001000000000000002D0026
:1003C0002E004C00C85CC75C5200010000003000E9
:1003D0000A5C500051004F0001003200010064002F
:1003E0000100010001000100010001000100010005
:1003F000CA5CC95C00047F3F1F6432146432147805
:100400003C1E1E140A052223252628292A2C2D2FBE
:100410003032333536383A3B3D3E4042434547491A
:100420004A4C4E5051535557595A5C5E606264664F
:1004300068696B6D6F71737577797B7D7F8183855B
:1004400087898A8C8E90929496989A9C9E9FA1A35D
:10045000A5A7A8AAACAEAFB1B3B4B6B8B9BBBCBE81
:10046000BFC1C2C3C5C6C7C9CACBCCCDCED0D1D2FD
:10047000D2D3D4D5D6D7D7D8D9D9DADADBDBDBDCFF
:10048000DCDCDCDCDDDDDDDDDCDCDCDCDCDBDBDBAB
:10049000DADAD9D9D8D7D7D6D5D4D3D2D2D1D0CE0B
:1004A000CDCCCBCAC9C7C6C5C3C2C1BFBEBCBBB910
:1004B000B8B6B4B3B1AFAEACAAA8A7A5A3A19F9E8E
:1004C0009C9A98969492908E8C8A89878583817F56
:1004D0007D7B79777573716F6D6B69686664626037
:1004E0005E5C5A5957555351504E4C4A4947454303
:1004F00042403E3D3B3A3836353332302F2D2C2AA0
:10050000292826252322FFAA7F5540000101010149
:1005100001010101010202020202020202020303BE
:10052000030303030303040404040404040505058E
:100530000505060606060607070707070808080850
:10054000090909090A0A0A0B0B0B0C0C0C0D0D0DFD
:100550000E0E0E0F0F0F1010111111121213131493
:1005600014151516161717181819191A1A1B1B1C0B
:100570001D1D1E1E1F202021222223242425262665
:10058000272829292A2B2C2D2D2E2F30313232339A
:100590003435363738393A3B3C3D3E3F40414243A3
:1005A0004445464748494A4C4D4E4F505153545587
:1005B0005658595A5B5D5E5F616264656668696B37
:1005C0006C6D6F7072737577787A7B7D7E808283B5
:1005D0008587888A8C8E8F91939596989A9C9EA0F9
:1005E000A2A3A5A7A9ABADAFB1B3B5B7BABCBEC006
:1005F000C2C4C6C9CBCDCFD1D4D6D8DBDDDFE2E4CF
:10060000E7E9EBEEF0F3F5F8FAFDFF040330000044
:10061000002A0354006800650020004E0079007134
:1006200000750069007300740020004B00650079BC
:100630000062006F0061007200640000000E034B56
:100640000065006500620069006F00000004030996
:100650000409023B00020100A0FA090400000103A2
:100660000101000921110100012240000705810359
:1006700008000A090401000103000000092111011A
:1006800000012281000705820320000A12011001E7
:100690000000000810CB5611000301020301050100
:1006A0000902A10185020901A10005091901290515
:1006B00015002501950575018102950175038101DC
:1006C0000501093009311581257F950275088106DC
:1006D00009381581257F950175088106050C0A38B2
:1006E000021581257F950175088106C0C0050109A5
:1006F00080A101850319012AB700150126B70095CD
:100700000175108100C0050C0901A10185041901C2
:100710002AA002150126A002950175108100C005CE
:10072000010906A101050719E029E7150025019532
:1007300008750181029501750881010507190029D5
:10074000FF150026FF0095067508810005081901B0
:100750002905950575019102950175039101C00068
:1007600011241FBECFEFDAE0DEBFCDBF04B603FE1B
:1007700027C08091FF0290910003A0910103B091E6
:1007800002038730904BA740B04BD1F41092FF0288
:1007900010920003109201031092020314BE84B75A
:1007A000877F84BF0FB6F894A89580916000886118
:1007B00080936000109260000FBEE0E0F8E30995BE
:1007C00011E0A0E0B1E0E4EFFFE502C005900D927A
:1007D000A83DB107D9F722E0A8EDB1E001C01D9214
:1007E000AF3FB207E1F70E94AC290C94F82F0C94AC
:1007F00000000C94DE0681E0089581E008950C94D9
:10080000FD0308950C9401041F93CF93DF9300D050
:1008100000D01F92CDB7DEB749835A836B833091E6
:10082000170289819A81311114C0662359F022235D
:1008300049F00E942D20182F682F89819A810E94EB
:10084000D41F03C00E940020182F69817A81812F54
:1008500004C00E942D2069817A810F900F900F9023
:100860000F900F90DF91CF911F910C94C404FC0165
:10087000262F408151816281738184810C9404040C
:10088000CF93DF93EC0160E00E943704BE01DF915B
:10089000CF910C9402040E945F21811102C00E943A
:1008A00008220E9493110C94F9030C94DC0608951D
:1008B0000C94570481E008950C945A04CF93C82FE8
:1008C0000E9458048C2F0E945C04CF9108950895D3
:1008D0000E94E01A0E9467042FEF84E39CE02150FD
:1008E00080409040E1F700C000000C942B230F9350
:1008F0001F93CF93DF93EC0161E00E9437048C01DA
:10090000BE010E94FF038823A9F1BE01C8010E9415
:10091000FC10882379F1BE01C8010E945612882379
:1009200049F1BE01C8010E949712882319F1BE0146
:10093000C8010E94C2138823E9F0BE01C8010E94C9
:10094000A90F8823B9F08A81882369F001158CE505
:10095000180731F00E3D1C4531F40E9408220AC0F0
:100960000E94680407C0CE01DF91CF911F910F91C3
:100970000C94FB0380E0DF91CF911F910F910895BC
:1009800080E090E0089508952CE3829FC001112437
:10099000FC0126E0729FE00DF11D1124E60FF11D10
:1009A000EE0FFF1FEC5DFE4F859194910895880F27
:1009B000991FFC01EC50FC4F859194910895CF93C1
:1009C000DF930E94C4040E94F705EC018115904555
:1009D00008F041C0C11580E4D80708F0D1C0C83E76
:1009E000D10510F5C03ED10508F0FDC0C83AD105CB
:1009F00078F4C53AD10508F0A2C0C130D10509F498
:100A0000F2C008F4EEC0C430D10508F0ECC0E9C073
:100A1000CF3BD10508F49BC0C03CD10508F4E1C030
:100A2000CE01805C91099EC0C11590E2D90758F4AF
:100A3000C11521E0D20708F0D6C0C03FD10508F4A7
:100A4000D0C0D065D0C0C11580E3D80708F08EC0F3
:100A5000CE019F7087C0C11595E5D90708F043C046
:100A6000C11524E5D20708F0A2C0C11582E5D80758
:100A700008F5C11591E5D90708F085C0CE0174E0ED
:100A8000969587957A95E1F783709C2F937021E076
:100A900030E002C0220F331F9A95E2F73C68382BF2
:100AA000CF70C695C69580E2C89FE0011124C22B85
:100AB000D32B99C09E01237033278C2F8695869562
:100AC000C115D34508F064C0C1E0D0E002C0CC0F2E
:100AD000DD1F2A95E2F720E2829FC0011124C82B76
:100AE000D92BDC6880C0C11529E5D207A0F4C11557
:100AF00088E5D80708F060C0C11596E5D90708F069
:100B000070C08C2F0E948B068F71C82FD0E0DC2F15
:100B1000CC27D06268C0C1152AE5D20708F451C0BD
:100B2000CE0190568115904208F05BC08D2F8F71D9
:100B30000E948B06DD27D0628F71D82B54C0C55A16
:100B4000D0E0CC59DE4FC881D0E0D0644CC0C85A48
:100B5000D0E0CC0FDD1FCA5CDE4F0990D881C02DDC
:100B6000D46441C00E94D704EC013DC0CE01992756
:100B7000D3FF03C0EC01D86C36C0EC01D06C33C09D
:100B8000DF70D06A30C0DC2FCC27C16FD06A2BC099
:100B9000C1E0D0E002C0CC0FDD1F2A95E2F720E2D1
:100BA000829FC0011124C82BD92BDA681CC0DC2F0E
:100BB000CC27C46FD06A17C0DC2FCC27C06FD06A97
:100BC00012C08C2F8F700E948B0694E0D695C7952B
:100BD0009A95E1F7CF70D0E0DC2FCC27D069C82BF5
:100BE00002C0C0E0D0E0CE01DF91CF9108958238FD
:100BF000910569F1B0F48133910509F46DC048F4B1
:100C00008932910509F463C08A32910509F469C0FB
:100C100008958533910509F455C089339105B9F0DC
:100C20000895833E910569F138F4803E9105B1F055
:100C3000823E910509F10895863E9105A9F1873E0E
:100C40009105B9F1843E910509F064C023C020915B
:100C5000F00220FD4FC021FD4DC008958091F002AB
:100C600080FD44C08091F10280FF44C08091F00279
:100C700084FD42C083EE4DC08091F00282FF38C0F7
:100C8000F5CF8091F00282FD33C08091F10280FDAA
:100C900031C0ECCF8091F10281FF32C08091F0022F
:100CA00084FD2AC087EE35C08091F00283FF26C004
:100CB000F5CF8091F00283FD21C08091F10281FD8A
:100CC0001FC0ECCF8091F00285FD1CC01DC080913B
:100CD000F00285FD19C016C08091F00286FD16C095
:100CE00017C08091F00286FD13C010C089E311C0C7
:100CF00082EE0FC080EE0DC080E00BC086EE09C012
:100D000084EE07C089E205C085E303C08AE201C022
:100D100081E390E008959091F00292FF0DC0282F9A
:100D20002871283019F4877F846006C0282F247129
:100D3000243011F48B7F886093FF0DC0282F287119
:100D4000283119F4877E846106C0282F247124314C
:100D500011F48B7E88612091F10220FF0DC0382FA5
:100D60003871383019F4877F816006C0382F3171AF
:100D7000313011F48E7F886021FF0DC0282F28713B
:100D8000283119F4877E816106C0282F2171213115
:100D900011F48E7E886194FD877E0895E82FF0E03F
:100DA000EC54FD4F80810895089580EA8A95F1F70B
:100DB000089508950C94D9060C94DA060C94D9067B
:100DC0000895CF93DF930E94620880910001809183
:100DD0000001811102C095E001C090E09093BF0234
:100DE00085E0891B8093BE02ADE6B1E042E751E0A9
:100DF00061E070E08D91E82FE295EF70F0E021A1C5
:100E00008F70EB0102C0CC0FDD1F8A95E2F7CE0197
:100E10009C2F9095922391A392A1892B82A34A178C
:100E20005B0741F7A7E6B1E04DE651E061E070E015
:100E30008D91E82FE295EF70F0E021A18F70EB012A
:100E400002C0CC0FDD1F8A95E2F7CE019C2F909552
:100E5000922391A392A1892B82A34A175B0741F7A2
:100E6000EAEAF2E0A4EBB2E084EB92E011921D9288
:100E70008E179F07D9F785E00E9407080E944B0450
:100E8000DF91CF910C9476080E944508882309F1E0
:100E90008091BE0290E08C549D4F0E94A608811163
:100EA00014C08091D8018F5F8093D801863078F08C
:100EB000E091BE02F0E0EC54FD4F80E090E0119232
:100EC000019685309105D9F702C01092D8010C9493
:100ED00055048091BF0290E08C549D4F0E94CF0832
:100EE0000C94E0063F924F925F926F927F928F92A6
:100EF0009F92AF92BF92CF92DF92EF92FF920F93A9
:100F00001F93CF93DF938DE6882E81E0982E0AEA17
:100F100012E09FEA692E92E0792E512CCC24C394E2
:100F2000D12C5801D8013C901C92F40181914F01C1
:100F3000C82FC295CF70D0E099A18F70760101C003
:100F4000EE0C8A95EAF7892F8E2989A38AA14E2C67
:100F5000409484218AA30E94D506E7E6F1E020E0D0
:100F600030E09191A92FA295AF70B0E090964C918E
:100F7000D8016C9150E09F7002C0559547959A95A5
:100F8000E2F740FD08C09C2D022E01C0990F0A9483
:100F9000EAF7892F01C080E0862BD8018C932F5F60
:100FA0003F4F26303105E9F689A1482249A28AA19E
:100FB000E82AEAA20F5F1F4F81E0F50190819311AB
:100FC00001C080E0582A6016710609F0AACF60912E
:100FD000BF0270E06C547D4F252D45E08AEA92E017
:100FE0000E9408080E944407852DDF91CF911F9130
:100FF0000F91FF90EF90DF90CF90BF90AF909F90B8
:101000008F907F906F905F904F903F9008950895DC
:10101000FF920F931F93CF93DF938C01F62ED72F60
:10102000C42F222349F081E08093DB010E94EA2251
:101030009093DA018093D9018091DB018823C1F07C
:101040008091D9019091DA010E94F622069780F0F2
:10105000EF2DFD2FD8014C2F50E0CD01801B910BBF
:10106000841795071CF48D918193F7CF1092DB01C3
:10107000DF91CF911F910F91FF90089555985D9842
:1010800089B185FB882780F908958091DC01811161
:1010900012C08091D80080618093D8008AE18A953F
:1010A000F1F700C08091D90080FD02C082E001C04C
:1010B00081E08093DC0181E09091DC01913009F0C6
:1010C00080E008950E943E08809300018091000115
:1010D00066E0882311F080E001C086E00E94740978
:1010E0000E94450881110C947D0808950E944508CE
:1010F000811102C00C948308089562E070E081E0E1
:1011000091E00C94511462E070E081E091E00C9465
:101110005A140E94800D882361F085EE91E00E94B0
:10112000860D81E090E00E943315892B11F40C9418
:10113000830D08958091E401883039F460E085EEF4
:1011400091E00E945E0E1092E4010895CF93DF9328
:10115000D82FC92F0E94890880E090E00E943315A3
:10116000892BC9F4ED2FFC2F80E090E0DC01A15227
:10117000BE4F2C912193019685309105B9F70E94BD
:101180001810882319F00E941C1001C080E0809381
:10119000DE0181E001C080E0DF91CF910895CF931F
:1011A000DF93D82FC92F0E949A08ED2FFC2F80E0E3
:1011B00090E02191DC01A152BE4F2C930196853025
:1011C0009105B9F78091DE01DF91CF910C94311137
:1011D000EF92FF920F931F93CF93DF93F62E472F3B
:1011E000E82FF0E0711106C0E55FFA4F6491762FA9
:1011F000862F72C0272F30E0E55FFA4FE4910E2F63
:1012000010E056E0659FC0011124CFEFD0E0BE0191
:101210000E942D2F5BEA5603C001579F900D1124A9
:101220008F0D911D8F0D911D982F990F890F7E01A4
:10123000E21AF30AE09ED001E19EB00DF09EB00DDF
:101240001124489FA0011124452F55277E01E41A3F
:10125000F50AE09EA001E19E500DF09E500D112474
:101260007E01E81AF108E29EC001E39E900DF29E15
:10127000900D1124892F9927C81BD90BC09FC0013D
:10128000C19F900DD09F900D11246230710591F097
:1012900048F461157105E1F061307105A9F48B2FF7
:1012A000752F19C06430710561F038F06630710532
:1012B00079F00AC0892F7B2F0EC08E2F7B2FE52F50
:1012C0000AC08E2F792F02C0852F7E2FEB2F03C0EF
:1012D0008B2F7E2FE92F6E2FDF91CF911F910F91D2
:1012E000FF90EF90089508958093F40160931501A5
:1012F0000895CF93DF93762FE901682F842F0E9402
:10130000E808798368838A83DF91CF91089580917B
:10131000C002282F269530E02115310519F481707F
:10132000826005C02532310524F081708864809385
:10133000C002089588E090E00C94B82FCF92DF921D
:10134000EF92FF926B017C010E948709B701A60111
:1013500088E090E0FF90EF90DF90CF900C94D62F34
:10136000E0ECF2E083E0808311828FEF828383835D
:101370001482ACEFB1E012968C91129783601296B2
:101380008C9360817181828193810C949E098091FC
:10139000C00280FF02C08695089580E00895809184
:1013A000C402833018F48F5F8093C4026091C0023E
:1013B0007091C1028091C2029091C3020C949E0967
:1013C0008091C402882319F081508093C4026091F7
:1013D000C0027091C1028091C2029091C3020C942C
:1013E0009E096091150170E08091C00280FF0AC0E3
:1013F0008091F40123E0829FC00111248B539D4F03
:101400000C94DF118091F30190911401891780F7FA
:10141000E82FF0E09F01220F331FE20FF31FEB5381
:10142000FD4F1182108212828F5FF0CF9091C00227
:1014300090FF16C09091F30120911401921770F45F
:10144000E92FF0E0DF01AA0FBB1FEA0FFB1FEB53F0
:10145000FD4F8183608342839F5FF0CF0C94F1093D
:101460000895CF93DF9300D01F92CDB7DEB7909150
:10147000C00290FF0AC09E012F5F3F4F0E94790972
:101480004B8169818A810E94160A0F900F900F90FC
:10149000DF91CF910895CF93DF93EC01EC81F0E0E1
:1014A000EA5FFB4F4491E0ECF2E0628181810E94AF
:1014B000310A8C818F5F8C83DF91CF910895CF9318
:1014C000DF93EC01E0ECF2E0438162818C810E94C9
:1014D000310A8C818F5F8C83DF91CF9108950F93B8
:1014E0001F93CF93DF9300D01F92CDB7DEB78C014F
:1014F0008091ED0181110AC09E012F5F3F4F4FEF98
:101500006FEF0E9479098A818093ED01F80184814F
:10151000813051F028F0823061F44091ED010AC031
:101520008091ED0140E007C06091ED0140E080E076
:1015300003C040E080E060E00E94160AF801848168
:1015400090E0019663E070E00E94412F84830F9049
:101550000F900F90DF91CF911F910F910895AF924F
:10156000BF92CF92DF92EF92FF920F931F93CF9390
:10157000DF9300D01F92CDB7DEB7182FF62E042FC1
:10158000E22E9091C00290FF7EC0E92FE695AE2F2B
:10159000B0E0A958BE4F8C918093FC019E7F9230A1
:1015A00061F49E012F5F3F4F812F0E9479094B818B
:1015B00069818A810E94160A43C0823019F4009121
:1015C000C3023EC0863019F41091C10239C089307F
:1015D000D9F38931A9F5E9518E2F8170D82EE6957E
:1015E000F0E0EA5FFA4FA590B490C12CBB24609163
:1015F0001301C61618F52C2D30E0A29EC001A39E43
:10160000900DB29E900D112470E00E942D2F812F1D
:10161000D11002C0860F01C0861B9091F301290FE3
:10162000311DA901440F551F240F351F2B533D4F6A
:10163000402F6F2D0E947909C394D9CF0E94F109E0
:101640008091C102181308C08091C202F81204C030
:101650008091C302081729F08091FE018260809377
:10166000FE011093C102F092C2020093C302EE2069
:1016700051F06091C0027091C1028091C2029091BC
:10168000C3020E949E090F900F900F90DF91CF919F
:101690001F910F91FF90EF90DF90CF90BF90AF9090
:1016A0000895E0ECF2E09181282F4381628188E087
:1016B000890F0C94AF0A81E00C94510BE0ECF2E03E
:1016C0009181282F4381628188EF890F0C94AF0AA2
:1016D00081E00C945E0BE0ECF2E0628121E1620FAC
:1016E00008F46FEF282F438181810C94AF0A81E0C9
:1016F0000C946B0BE0ECF2E0628121E1621B08F4D8
:1017000060E0282F438181810C94AF0A81E00C9422
:101710007A0BE0ECF2E0438121E1420F08F44FEF55
:10172000282F628181810C94AF0A81E00C94890B8F
:10173000E0ECF2E0438121E1421B08F440E0282F75
:10174000628181810C94AF0A81E00C94980B20E0B7
:101750000C94AF0AFF920F931F93CF93DF93EC018A
:10176000F12C0FEF10E060911301F616F0F4809168
:10177000F3012F2D30E0280F311DC901880F991F6B
:10178000280F391F2B533D4F70E0C8010E94412F95
:10179000962F8C814091C3026091C202F99E800D08
:1017A00011240E947909F394DECF0E94F1099A81F5
:1017B0008C8190FF02C08F5F01C081508C83DF91CC
:1017C000CF911F910F91FF9008958F929F92AF92AA
:1017D000BF92CF92DF92EF92FF920F931F93CF931E
:1017E000DF93EC018A8180FF03C0BB24BA9402C05E
:1017F000BB24B3948C8181110DC081E0B81206C066
:101800008091130181508093EF0102C01092EF018B
:1018100081E08C83A12C4CE0942E80911301A816BA
:1018200008F044C08091F301CA2CD12C8601080F26
:10183000111DC801880F991F080F191F0B531D4F49
:10184000F80111821082128234E0E32EF12C812CF7
:101850008091EF01880D8D302CF0692D0E941F2F93
:10186000892F05C087FF03C090911301890F082EAF
:10187000000C990BC816D90691F48091C3028E9D75
:10188000A0018F9D500D112455954795559547956D
:1018900098016091C2028091C1020E9479098B0C6B
:1018A000F1E0EF1AF108A1F6A394B7CF0E94F10975
:1018B0008091EF0191E0B9120EC0811107C08091B3
:1018C000130181508093EF011C820FC081508093DF
:1018D000EF01BC820AC090E001966091130170E0B4
:1018E0000E94412F8093EF018C83DF91CF911F9154
:1018F0000F91FF90EF90DF90CF90BF90AF909F90AF
:101900008F9008951F93CF93DF93EC018C81811109
:1019100009C081E08C831092EE0192E09093120155
:10192000809311018091F30190911401891770F453
:10193000E82FF0E09F01220F331FE20FF31FEB535C
:10194000FD4F1182108212828F5FF0CF10E0609104
:1019500013011617C0F5E12FF0E070E0CF010E94EF
:10196000412F2091F301820F2091EE01022E000CF5
:10197000330B90E0E217F307CCF020911201022E16
:10198000000C330B2E173F078CF09C01220F331FE6
:10199000820F931F9C012B533D4F4091C3026091D6
:1019A000C2028091C1020E9479090BC0FC01EE0FB6
:1019B000FF1F8E0F9F1FFC01EB53FD4F1182108202
:1019C00012821F5FC4CF0E94F10980911101209102
:1019D000EE01280F2093EE0190911201980F909341
:1019E000120119165CF4022E000C330B4091130106
:1019F00050E0415051092417350734F08195809308
:101A00001101813009F41C82DF91CF911F9108955B
:101A10000F931F93CF93DF938C01FC0184819581F9
:101A200001968170992795838483C0E0D5E58091E4
:101A30001301C81700F58091F3012C2F30E0280F17
:101A4000311DC901880F991F280F391F2B533D4F96
:101A50004C2F4695F80184819581840F911D8170EA
:101A60004091C3026091C2028D9F802D11240E947B
:101A70007909CF5FDCCFDF91CF911F910F910C944B
:101A8000F1090F931F93CF93DF93EC0100E010E077
:101A900080911301282F30E00217130724F590914D
:101AA000F3019801290F311DA901440F551F240F7F
:101AB000351F2B533D4F869590E04C810817190731
:101AC0001CF4442331F002C0411103C04091C30211
:101AD00001C040E06091C2028091C1020E94790978
:101AE0000F5F1F4FD5CF0E94F1098C8190E00196C6
:101AF000817099278C83DF91CF911F910F91089569
:101B00008091FE0108951092FE01089525E0E0EC19
:101B1000F2E0DC0101900D922A95E1F72091FC01A1
:101B20003091FD014091FE01FC01258336834783FE
:101B300008956091C002669570E04BE050E086E148
:101B400091E00E94A32F892B19F481E08093FD017D
:101B50000E94EA229093F6018093F5018091FE01A4
:101B600084608093FE010895ECEFF1E011828281A0
:101B70008460828308959091C00290FF3AC0917072
:101B8000811102C0926006C0853210F0986402C0D4
:101B9000880F982B9093C0028091FE018160809302
:101BA000FE01662351F06091C0027091C1028091E4
:101BB000C2029091C3020E949E096091C002669584
:101BC00070E04BE050E086E191E00E94A32F892B6A
:101BD00019F00E94B40D02C00E94990D81E080931B
:101BE000F8014091C3026091C2028091C1020C943D
:101BF000A70B0895682F9091C002969581E0890FF8
:101C0000853208F081E00C94BB0D81E00C94FA0D54
:101C1000682F9091C00296958FEF890F09F484E2A6
:101C20000C94BB0D81E00C94080E61E00C94BB0D8C
:101C3000E0ECF2E080818160808386950C94150E43
:101C400060E00C94BB0DE0ECF2E080818E7F80833D
:101C500060817181828193810E949E090E94B40DEE
:101C6000ECEFF1E08281816082832FEF80E792E0E8
:101C7000215080409040E1F700C000000C94F10931
:101C80008091C00280FD0C94230E0C94180EE0ECA1
:101C9000F2E080818E7F80830E94B40DECEFF1E052
:101CA0008281816082832FEF80E792E02150804023
:101CB0009040E1F700C000000C94F1091F93CF930E
:101CC000DF93EC01162F8F8180FF0FC0888180FF8A
:101CD0000AC08091C00281608093C002888186958D
:101CE0000E94BB0D02C00E94470E8F8181FF06C07B
:101CF000212F4B816A8189810E94AF0A8F8182FFE7
:101D000008C08E81882319F00E94990D02C00E949C
:101D1000B40D8F8183FF03C081E08093F801DF91D0
:101D2000CF911F9108958091FB01811133C00E94D2
:101D30005F21811104C00E9408220E94B0090E9404
:101D40009A096093C0027093C1028093C20290937B
:101D5000C3028091FE0183608093FE016E7F61F477
:101D60000E94B0090E949A096093C0027093C10258
:101D70008093C2029093C3020E9487090E94B40D0F
:101D80008091C00280FF03C086950E94200E81E0F2
:101D90008093FB010895EF92FF920F931F93CF93CF
:101DA000DF938091FD01882309F4B1C08091FC018B
:101DB000E091C002E695E81BE093F701823049F418
:101DC000F0E0EE5FFB4FE491CE2FD0E00BE41AE0A1
:101DD00049C0863049F4F0E0E150FC4FE491CE2F49
:101DE000D0E00FE51AE03EC0893051F4E695F0E00E
:101DF000E450FC4FE491CE2FD0E00AEA1BE032C061
:101E00008F3051F4E695F0E0E750FC4FE491CE2F8F
:101E1000D0E005EE1BE026C0853149F4F0E0EA5041
:101E2000FC4FE491CE2FD0E002E81CE01BC08831CB
:101E300081F0833239F4E4EFF3E0C591D4910FE6F9
:101E40001AE010C0843251F4C4EFD1E001E41DE087
:101E500009C0C8EED3E008E01DE004C0C0EDD7E043
:101E600003E719E08091F801882389F01092F801C6
:101E70000E94EA229E0120953095820F931F909335
:101E8000F6018093F5011092FA011092F901809108
:101E9000F5019091F6010E94F6228C179D07B8F18A
:101EA0008091F2018823B1F01092F2018091F0014B
:101EB0009091F1010E94F6228033954758F00E94DC
:101EC000EA229093F1018093F0018091FE018860F5
:101ED0008093FE01E090F901F090FA01E091F501A4
:101EE000F091F601CE0FDF1FD093F601C093F501FC
:101EF00085EF91E0F80109958091F9019091FA013F
:101F0000892B29F4EF2819F081E08093F201DF9109
:101F1000CF911F910F91FF90EF900895882311F0BA
:101F2000FA0101C0FB010994CF93DF93C82FD62F8C
:101F30000E94C7098C1740F00E94C7098D1720F432
:101F4000DF91CF910C94050E8C2FDF91CF910C94E3
:101F5000150E1F93CF93DF93FB011281111163C004
:101F6000EC010E94AE208272FE01E25CFC45E4318D
:101F7000F10508F057C0EA5AFF4F0C94772F0E94E2
:101F8000400E51C042E15EE065E07EE004C045E005
:101F90005EE062E17EE00E948E0F45C048E65BE0B5
:101FA0006BE57BE0F8CF4BE55BE068E67BE0F3CFE9
:101FB00046E85BE067E77BE0EECF47E75BE066E89B
:101FC0007BE0E9CF44EA5BE065E97BE0E4CF45E90B
:101FD0005BE064EA7BE0DFCF40EE59E06FEC79E054
:101FE000DACF4FEC59E060EE79E0D5CF81E017C051
:101FF00065E082E010C068E086E00DC06EE089E038
:102000000AC064E18FE007C067E185E104C088E1B0
:1020100006C062E289E10E94940F05C083E20E943B
:10202000150E01C011E0812FDF91CF911F9108950E
:102030008091E902817008958091E90286958695E4
:10204000869508950E945F21811102C00E94082296
:102050000E9490218093E902282F269526952695A7
:1020600030E02830310524F0877088638093E902DE
:102070008091E90280FF04C086958695869501C00F
:1020800080E00C9431112091E902822F869586958B
:102090008695482F50E04730510554F48F5F982FB4
:1020A000990F990F990F822F8770892B8093E902DE
:1020B0008091E90281608093E9020E9494218091DD
:1020C000E9028695869586950C9431118091E902F6
:1020D000982F969596959695A1F0915E990F990FE8
:1020E000990F8770892B8093E902887F91E009F42A
:1020F00090E08091E90290FB80F98093E9020E94D0
:1021000094218091E9028695869586950C943111EB
:102110008091E90280FD13C081608093E9028130E3
:1021200019F489E08093E9028091E9020E949421E8
:102130008091E9028695869586950C9431110895D3
:102140008091E90280FF08C08E7F8093E9020E949F
:10215000942180E00C94311108958091E90280FD72
:102160000C94A0100C9488109091E902892F869508
:10217000869586958F5F8F719770883038F4880FB9
:10218000880F880F892B8093E90202C09093E9029F
:102190008091E902887F91E009F490E08091E90262
:1021A00090FB80F98093E9020E9494218091E902DA
:1021B0008695869586950C943111883008F087E0D5
:1021C0009091E9029770282F220F220F220F922B55
:1021D0009093E902987F21E009F420E09091E902D0
:1021E00020FB90F99093E9020C9431110E94DD10CC
:1021F0008091E9020C9494219C01FB018281882347
:1022000049F12D3BFCE53F07C9F040F42B3BECE5E1
:102210003E0769F02C3B3C4561F008952F3B9CE55F
:10222000390791F070F0203C3C4589F0089587E033
:1022300001C080E00E94F61080E008950E946610C0
:10224000FBCF0E944310F8CF0E94AD10F5CF0E9443
:10225000B410F2CF81E00895259A2D9808952D9815
:102260000895CF92DF92EF92FF92CF93C82F8830DC
:1022700050F4811109C0809180008F778093800095
:102280000E942F1106C0C7E0809180008068809373
:1022900080002C2F30E0AFEFBFEF0E947D2F27E0B2
:1022A00030E040E050E00E94552FC9012C3764E136
:1022B000360728F469E070E00E942D2F29C0DA016A
:1022C000C9018A50974DAF4FBF4F6627782F892F8E
:1022D0009A2F25EF38E241E050E00E94552F690126
:1022E0007A01CA01B9010E940F2F9B01AC01C701FD
:1022F000B6010E940F2FBB27A92F982F872F009779
:1023000021E0A207B10511F0BC0102C06FEF7FEF21
:102310007093890060938800CF91FF90EF90DF90D9
:10232000CF90089508950E942C1182E88093800038
:1023300089E1809381008FEF9FEF909387008093D6
:1023400086000C94221054B1E42FEF7021E030E0AD
:1023500001C0220FEA95EAF7352F322B34B94295A6
:102360004F70E42FF0E032A1422F4095342342A178
:10237000242B4FB7F894FC01CB01880F991F680FED
:10238000791F6E0F7F1FE617F70789F0819198E09C
:1023900025B9000000C087FF35B9880F000000C0D4
:1023A00000C000C035B900C09A9591F7ECCF4FBF7F
:1023B00087EC90E00197F1F700C00000089544E336
:1023C0000C94A3110F931F93CF93DF93C62FD42F99
:1023D000122FFC0182818823C9F0609301020E94C0
:1023E000EA22909300028093FF0180E28C0F8830F4
:1023F00008F057C0C77081E001C0880FCA95EAF79E
:10240000DF91CF911F910F910C94281880910102B8
:10241000681330C08091FF01909100020E94F62263
:10242000883C910538F500E20D0FCD17B9F080E238
:102430008C0F883040F4C77081E001C0880FCA95C6
:10244000EAF70E942F18083028F581E09D2F977039
:1024500001C0880F9A95EAF70E942818812F0E94E0
:1024600015180830F0F4D77081E001C0880FDA95B4
:10247000EAF70AC080E28C0F883098F4C77081E0D8
:1024800001C0880FCA95EAF7DF91CF911F910F9194
:102490000C942F18812FDF91CF911F910F910C94E5
:1024A0001518DF91CF911F910F9108959C01CB01D9
:1024B000233F4CE53407F9F078F4283DFCE53F076D
:1024C000B9F0293D4CE5340711F1273D3C4531F584
:1024D00026E241EE61EE1EC0253FFCE53F0799F084
:1024E00070F0263F3C45D1F427E245EE66EE12C07F
:1024F00027E245EE0EC026E241EE60EE0BC027E279
:1025000045EE64EE07C026E241EE62EE03C028E22B
:1025100041E065EE0E94E21180E00895FC018281B5
:10252000882319F010920102089581E00895CF9355
:10253000DF93EC01FB018281882309F41FC1C230C3
:10254000FCE5DF0708F41BC1C6319CE5D90738F06C
:102550009E012A5F3C452930310508F010C10E94D8
:1025600072219093F1028093F002C031ECE5DE0716
:1025700009F4C3C008F041C0C8308CE5D80709F49D
:102580009AC0F0F4C430ECE5DE0709F487C068F4C3
:10259000C2308CE5D80709F477C0C330DC4509F0B8
:1025A000E3C08091F002826076C0C630ECE5DE07C1
:1025B00009F46EC008F07BC08091F00288606BC0A7
:1025C000CC308CE5D80709F485C068F4CA30ECE556
:1025D000DE0709F474C008F079C00E94E01A809107
:1025E000F002806858C0CE308CE5D80709F476C078
:1025F00008F07FC08091F0028BC0CB3FECE5DE0796
:1026000009F44FC018F5C3318CE5D80709F47DC033
:1026100078F4C131ECE5DE0709F473C0C231DC4562
:1026200009F0A2C00E94E01A8091F0028F7733C0B7
:10263000C5318CE5D80709F472C008F486C0CA3FDA
:10264000DC4509F091C08091F1023EC0CF3FFCE52E
:10265000DF0709F45FC058F4CD3F9CE5D90709F4C2
:1026600044C008F43FC08091F10282602DC0C130A7
:10267000FDE5DF0709F475C008F45DC0C230DD4533
:1026800009F072C080E06EC08091F002816003C0EA
:102690008091F00280618093F00266C08091F00228
:1026A00011C08091F10282608093F1025DC080913F
:1026B000F0028062F0CF8091F0028064ECCF8091D4
:1026C000F00288608460E7CF8160EECF8091F002F5
:1026D0008E7FE1CF8091F0028D7FDDCF8091F0027F
:1026E000877FD9CF8091F10218C08091F1028D7F50
:1026F000DBCF8091F0028F7ECECF8091F0028F7D74
:10270000CACF8091F0028F7BC6CF8091F002877F85
:102710008B7FC1CF8091F1028D7F8E7FC5CF80915D
:10272000F00282FB222720F991E0922790FB82F9A8
:1027300090FB83F9B0CF8091F102982F9095917022
:102740008E7F892B90FB81F9AFCF0E94E01A809198
:10275000F00287FB222720F991E0922790FB87F96E
:102760009ACF81E00E940A228091F0029091F102BA
:102770000E9483210E94E01A80E001C081E0DF9185
:10278000CF910895CF93DF9386319C4541F5EB01BE
:102790000E94AE20982F8A81209121013091220140
:1027A000882379F09A7A81E009F480E0809302022C
:1027B000911102C069E201C065E3C9010E94512282
:1027C0000AC080910202811102C069E201C065E382
:1027D000C9010E9453220E94FC2080E001C081E0D8
:1027E000DF91CF9108958EE1489B02C08150E1F7BF
:1027F000489BFECF0895589880E28A95F1F7589A41
:102800000895FC012AE02A95F1F790E020E080E0AD
:1028100031E0261779F040E14A95F1F7880F489B9F
:1028200002C08160932700C0000040E14A95F1F7A3
:102830002F5FEFCF20E12A95F1F729B100C000000A
:1028400030E13A95F1F7217092272081920F908321
:102850000895EF92FF920F931F93CF93DF931F92F0
:10286000CDB7DEB719828C017C01E60EF11C0E1586
:102870001F0559F00E94F31368E0CE0101960E94F3
:102880000114F80181938F01F2CF81E099819111B8
:1028900080E00F90DF91CF911F910F91FF90EF900B
:1028A0000895909305028093040260930302509A66
:1028B000589A08959093050280930402609303024E
:1028C0005098589AE89AE9E6F0E080818C7F8083FE
:1028D0000895615091E001C0990F6A95EAF720E0F0
:1028E00031E0992361F0492F482319F0589A2327A2
:1028F00001C0589840E24A95F1F79695F2CF22230D
:1029000011F0589A01C0589880E28A95F1F75898CA
:102910000895FF920F931F93CF93DF93EC018C01E7
:10292000060F111DC017D10741F0F9900E94FB134B
:1029300068E08F2D0E946914F5CFDF91CF911F9130
:102940000F91FF9008951F920F920FB60F921124CE
:102950000F931F932F933F934F935F936F937F93A7
:102960008F939F93AF93BF93EF93FF93CF93DF9397
:102970001F92CDB7DEB719820E94F31367E0CE0134
:1029800001960E940114382F369536953695932F6F
:1029900096959570232F2570920F292F2370969569
:1029A00096958770920F891348C08981811145C01F
:1029B00080910302831708F440C080E18A95F1F703
:1029C000589A509AA2E0AA95F1F700C0009104022B
:1029D00010910502B8E03B9F000D111D112458987D
:1029E000F8016581662321F0868197810E94891410
:1029F0000E94FB13F0E1FA95F1F758985098589A15
:102A000080E18A95F1F7D80112966C9112976623AE
:102A100069F013968D919C9114970E942914D80106
:102A2000ED91FC91811105C082E004C0D801ED91C7
:102A3000FC9188E080830E94F3130F90DF91CF9187
:102A4000FF91EF91BF91AF919F918F917F916F9186
:102A50005F914F913F912F911F910F910F900FBE5A
:102A60000F901F9018950F931F93CF93DF93209192
:102A7000030230E0281739070CF471C09C0193E081
:102A8000220F331F9A95E1F7C0910402D0910502FD
:102A9000C20FD31FF894509A589845E04A95F1F721
:102AA0000000982F969595708570890F982F9370D8
:102AB00086958695890F8901082B0E94FB1384E077
:102AC0008A95F1F700C067E0802F0E94691440E109
:102AD0004A95F1F75098589A489902C000C0FCCF27
:102AE00087E090E0489B0EC0019751F4509A589AA5
:102AF000E881F98181E08083789481E090E031C0C1
:102B000000C0F0CF6D81662381F08E819F810E948D
:102B1000291481110AC0509A589AE881F98182E0FB
:102B20008083789482E090E01CC00E94F31380E2DE
:102B30008A95F1F75898509A40E14A95F1F76A81E1
:102B4000662321F08B819C810E9489140E94FB13D3
:102B5000E881F9811082789480E090E002C084E0FE
:102B600090E0DF91CF911F910F91089590930B0208
:102B700080930A020895E0910A02F0910B023097C7
:102B800021F00190F081E02D099480E00895E0911A
:102B90000A02F0910B02309721F00280F381E02DC0
:102BA00009940895E0910A02F0910B02309739F0F0
:102BB00022E0DC012C930480F581E02D0994089536
:102BC00020910802309109022817390771F090937B
:102BD000090280930802E0910A02F0910B023097FB
:102BE00021F00680F781E02D0994089520910602D6
:102BF000309107022817390771F0909307028093EC
:102C00000602E0910A02F0910B02309721F0008455
:102C1000F185E02D0994089585B7806885BF85B753
:102C2000806885BF089508950C9413160C941416AB
:102C30000C9413160C9413160E940C160E9418166E
:102C40000C9416160E94E1220E94E1060E944F2376
:102C50000E9422100E94930E0C941A16AF92BF92FB
:102C6000CF92DF92EF92FF920F931F93CF93DF9358
:102C7000CDB7DEB72A970FB6F894DEBF0FBECDBF33
:102C80000E9472070E944508811111C08FEF89834D
:102C90008A831B820E94EA228160782F9D838C8325
:102CA00049815A816B818D810E94CA1640C08DE096
:102CB000A82E82E0B82E00E010E0C02E802F0E94E7
:102CC000CE06E82EF501D1905F01D82631F40F5FD2
:102CD0001F4F0A30110589F7D9CF80918D0281FDF0
:102CE0000E94D40680E0FF24F3949D2D9F21D1F013
:102CF0008E83CF82EF2081E009F480E088870E94F4
:102D0000EA228160782F9A8789874E815F81688562
:102D10008A850E94CA16F801E35FFD4F8081F8267C
:102D2000F08205C08F5FFF0C8630F9F6D0CF0E948D
:102D3000CB0E0E9492110E94E1240E94BB1590913B
:102D40000C028917B1F00E94BB1580930C022A96E1
:102D50000FB6F894DEBF0FBECDBFDF91CF911F91AC
:102D60000F91FF90EF90DF90CF90BF90AF900C94B9
:102D70005E042A960FB6F894DEBF0FBECDBFDF917A
:102D8000CF911F910F91FF90EF90DF90CF90BF9068
:102D9000AF900895CF93DF93CDB7DEB72B970FB6E3
:102DA000F894DEBF0FBECDBF4F83588769877A87FF
:102DB0008B87DE01119686E0FD0111928A95E9F775
:102DC00085E0FE01379601900D928A95E1F74981E1
:102DD0005A816B817C818D819E810E94991D2B96E9
:102DE0000FB6F894DEBF0FBECDBFDF91CF9108952F
:102DF000FC01808191810E946F200895CF938823E8
:102E000009F4A9C0C82F8238C1F40E94BB1581FD06
:102E1000A2C069E380912101909122010E94512278
:102E20000E94FC202FEF81EE94E0215080409040E2
:102E3000E1F700C0000069E319C0833801F50E9482
:102E4000BB1580FD88C063E580912101909122012E
:102E50000E9451220E94FC202FEF81EE94E021502D
:102E600080409040E1F700C0000063E580912101BF
:102E7000909122010E945322CF910C94FC2084381F
:102E8000C1F40E94BB1582FD66C067E480912101F8
:102E9000909122010E9451220E94FC202FEF81EE8E
:102EA00094E0215080409040E1F700C0000067E4CA
:102EB000DDCF8CEF8C0F813AF8F48C2F0E94952790
:102EC000811149C06C2F80912101909122010E94B3
:102ED0001B22882349F06C2F8091210190912201BF
:102EE0000E9453220E94FC206C2F8091210190911E
:102EF00022010E945122C0CF80E28C0F883048F41A
:102F0000C77081E001C0880FCA95EAF70E94B1201E
:102F1000B3CFEBE5EC0FE33040F4F0E0E653FE4FC7
:102F2000808190E0CF910C94E015E8E5EC0FE7315B
:102F300050F4F0E0EE0FFF1FE456FE4F80819181C8
:102F4000CF910C94F615C03F30F08C2F0E94E923EE
:102F5000CF910C94D624CF910895882309F464C0AE
:102F6000823879F40E94BB1581FF5EC069E38091CD
:102F70002101909122010E9451220E94FC2069E3CC
:102F800010C08338B1F40E94BB1580FF4DC063E5CB
:102F900080912101909122010E9451220E94FC20E7
:102FA00063E580912101909122010E9453220C94AB
:102FB000FC20843879F40E94BB1582FF35C067E499
:102FC00080912101909122010E9451220E94FC20B7
:102FD00067E4E7CF9CEF980F913A10F4682FE1CFA8
:102FE00090E2980F983050F4877091E001C0990FEB
:102FF0008A95EAF7892F0E94B720D9CF9BE5980FD1
:10300000933020F480E090E00C94E01598E5980F60
:10301000973120F480E090E00C94F615803F20F08A
:103020000E9451240C94D6240895CF93C82F0E9457
:10303000FE16C93349F42FEF87EE93E0215080400C
:103040009040E1F700C000008C2FCF910C94AD1799
:10305000882321F00E94B1200C94FC20089588233D
:1030600021F00E94B7200C94FC200895CF92DF92AB
:10307000EF92FF920F931F93CF93DF937C01062F64
:10308000C72FFC01158112951F70D281D1110E94AA
:10309000CE200E94A720882379F0DD2369F080E20A
:1030A000800F883048F082E00E9446210E94A720CD
:1030B00091E0D82ED92601C0D12CCC2EC2948FE01D
:1030C000C8228C2D90E0FC01E659FF4F0C94772F1D
:1030D0008C2F807FCF70882311F0C295C07FDD23B5
:1030E00099F0CC2309F4C4C180E2800F883010F03D
:1030F000011104C08C2F0E94B12003C08C2F0E94AC
:10310000C1200E94FC20B4C1802F0E94AD17CC23A7
:1031100009F4D3C180E2800F883010F0011104C09F
:103120008C2F0E94B72003C08C2F0E94C7200E94C2
:10313000FC20C3C18C2F807FCF70803211F0C295EC
:10314000C07F002319F00130C9F022C0DD2371F0E7
:10315000112341F0113031F40E94E1208C2B0E94A8
:10316000E920ABC10E94E1208C2B1DC0112319F076
:10317000113009F4A2C10E94F22025C0DD2321F004
:10318000163008F09AC10EC0153008F096C11BC069
:10319000DD2361F0112331F0F701858180FF68C1E3
:1031A0008F7085838C2F0E94281887C1112359F0B6
:1031B000093309F06EC1FFEF27EE83E0F1502040A4
:1031C0008040E1F764C18C2F0E942F1876C18C2FAC
:1031D00086958695837019F0813061F06EC1DD238C
:1031E00021F0802F9C2F937002C080E090E00E941D
:1031F000E0156BC1DD2321F0802F9C2F937002C05E
:1032000080E090E00E94F61560C1DD23F9F0053FF3
:1032100051F0063F71F0043FA9F48091EA029091C9
:10322000EB0281600BC08091EA029091EB02826018
:1032300005C08091EA029091EB0284609093EB02CA
:103240008093EA02802F0E94E9231EC0053F51F0BF
:10325000063F71F0043FA9F48091EA029091EB02DD
:103260008E7F0BC08091EA029091EB028D7F05C0AA
:103270008091EA029091EB028B7F9093EB02809316
:10328000EA02802F0E9451240E94D6241EC18C2F56
:10329000837009F045C0D11114C1402F4295469565
:1032A0004770440F440F602F6F70862F90E0A0E0AE
:1032B000B0E0042E04C0880F991FAA1FBB1F0A94F8
:1032C000D2F704FF10C00FE010E020E030E004C0AF
:1032D000000F111F221F331F4A95D2F7009510953A
:1032E0002095309503C000E010E09801C695C69582
:1032F000C370BC01CD01602B712B822B932BC2308C
:1033000049F058F4C13019F00E94EA1EDAC00E9458
:10331000D81ED7C00E94FC1ED4C00E94D61ED1C0A9
:10332000DD2319F08C2F817001C08695882309F464
:10333000C8C0402F429546954770440F440F602FF8
:103340006F70862F90E0A0E0B0E0042E04C0880FDC
:10335000991FAA1FBB1F0A94D2F704FF10C00FE0E9
:1033600010E020E030E004C0000F111F221F331FC7
:103370004A95D2F7009510952095309503C000E04E
:1033800010E09801C695C695C370BC01CD01602BB5
:10339000712B822B932BC23049F058F4C13019F0B5
:1033A0000E94AF1F8EC00E949D1F8BC00E94C11F34
:1033B00088C00E94101F85C0CF70DD2339F08C2F8C
:1033C0000E94361F802F0E9428187BC0802F0E94E9
:1033D0002F188C2F0E94571F74C0023F01F128F450
:1033E000003F41F0013FA1F03FC0033FF9F0043F2F
:1033F00039F13AC0DD2341F0153008F05EC08C2F62
:103400008F710E947C1F59C0163008F056C0F7CF4C
:10341000DD2339F08C2F8F710E94361F4EC0DD23C3
:10342000C9F38C2F8F710E94571F47C0DD2329F0ED
:103430008C2F8F710E94211F40C00E941C1F3DC015
:10344000DD2349F0CF718C2F0E94361F63E08C2F53
:103450000E94312132C081E00E944621123068F181
:1034600082E00E94462129C0DD2331F0112391F230
:10347000802F0E94FE1621C0112399F2093349F4CE
:103480009FEFE7EEF3E09150E040F040E1F700C03D
:103490000000802F0E94AD1710C04C2F4F70602F7E
:1034A000C7010E94C0040E94471E0FC04C2F4F70DE
:1034B000602FC7010E94C30408C088EF8C0D8430C0
:1034C00020F40E94BB150E945E04DD20C9F00E941A
:1034D000A32080FD15C0F70112820E949D200E944A
:1034E000361FC7010E94A11A0E949D20DF91CF9133
:1034F0001F910F91FF90EF90DF90CF900C94571F8A
:10350000DF91CF911F910F91FF90EF90DF90CF90BF
:1035100008950F931F93CF93DF93EC016881798116
:103520008A810E947A208C010E94D31F0E94C41EAF
:10353000B801CE010E943618DF91CF911F910F91F3
:103540000895CF93DF93FC019081818123813481A1
:10355000232B31F08F3F31F481E09F3F19F403C0FA
:1035600081E001C080E080FD0EC0EF01CF010E942C
:103570007704882341F0CE010E94891ACE01DF91A1
:10358000CF910C944004DF91CF9108950E94CE20FA
:103590000E94DE200E94FC200E9400260E94D62469
:1035A00080E090E00E94E01580E090E00C94F61539
:1035B00080912101909122010E9455220C94C61AFB
:1035C0000E94BE200C94D81AE92FE295EF704E2F7E
:1035D00050E0FA013297EE30F105B0F4E658FF4FB3
:1035E0000C94772F803F91F018F4883E68F40EC059
:1035F000843F51F40BC0883E48F0813F29F406C057
:1036000093FB882780F9089580E0089581E008956C
:103610000E946F200E94E41A0895CF93DF9300D098
:1036200000D01F92CDB7DEB70F900F900F900F9084
:103630000F90DF91CF910895CF93DF9300D000D00A
:1036400000D0CDB7DEB726960FB6F894DEBF0FBE1A
:10365000CDBFDF91CF9108951F93CF93DF93C0919A
:10366000180216E080911902C81799F0D0E01C9F4B
:10367000F0011D9FF00D1124E65EFD4F4081518148
:1036800062817381848195810E941C1B2196C77081
:10369000E9CFDF91CF911F91089540914A02509157
:1036A0004B0260914C0270914D0280914E029091BC
:1036B0004F020C941C1B0F931F93CF93DF938091A9
:1036C0004F0282958F7009F05DC080914C02882373
:1036D00009F458C0809118021091190260914A02B1
:1036E00070914B02C0914D02D0914E0291E06F3F1C
:1036F00009F090E0292F06E0811709F443C02097D4
:1037000021F07F3F21F030E003C031E001C0322FD3
:1037100090E030FD34C0089FF001099FF00D1124A6
:10372000DF01A65EBD4F11963C911197371327C05C
:103730003C91361324C012963C91129731111FC050
:1037400013964D915C9114974C1B5D0B483C5105B1
:10375000B0F480914F028F70806180934F02E15EE0
:10376000FD4F80818F70806180838AE492E00E94A7
:10377000A11ADF91CF911F910F910C942C1B0196F0
:103780008770BACFDF91CF911F910F9108959F92CB
:10379000AF92BF92CF92DF92EF92FF920F931F935F
:1037A000CF93DF93CDB7DEB761970FB6F894DEBF46
:1037B0000FBECDBF8C0185E0F801DE011D960190A2
:1037C0000D928A95E1F7F80140815181E280909154
:1037D0004A0260914B0220914D0230914E02211518
:1037E000310531F06F3F31F481E09F3F19F403C0A0
:1037F00081E001C080E0F82FF1709F2E80FD46C16E
:10380000F801A380B4808AE4C82E82E0D82EF0901C
:103810004C02F501E21BF30BFF2009F4DFC080919D
:103820004F02E83CF10508F09BC0282F207F09F0EB
:1038300052C0561313C0491311C0FE2CE1100EC024
:103840008F70806180934F020E944D1BC6010E94C1
:10385000A11A80914F02F801858358C1AB2831F03D
:103860005F3F31F481E04F3F19F403C081E001C0B4
:1038700080E080FD03C081E08E2502C080E090E002
:10388000F82FF170FF2E80FF1CC08091180220914C
:10389000190236E0821709F417C190E0389FF00151
:1038A000399FF00D1124E65EFD4F6181561306C06D
:1038B0006081461303C06281E61203C001968770DF
:1038C000E9CFFE2CEE2009F421C180914F028160E6
:1038D00080934F025AC0561306C0491304C0E1102A
:1038E00002C0F8019FC04D875E878D859E850E942E
:1038F000081B882379F1EE2069F120914F02822F75
:1039000082958F7090E0029774F080914A029091B6
:103910004B0298878F831986BB86AA862C87CE0197
:1039200007960E94A11A86E0F801AAE4B2E001908D
:103930000D928A95E1F70E945B1B0E944D1B0DC002
:10394000561729F14D875E878D859E850E94081B3D
:1039500081112CC0C8010E94A11AFF24F394D6C083
:10396000282F207F69F77A2DB98AA88A6E2D898938
:103970000E940D1B8AE492E00E94A11A86E0F601E3
:1039800011928A95E9F70E944D1BF12CBFC0491393
:10399000D9CFE110D7CFF8018583C8010E94A11AC1
:1039A00086E0F60111928A95E9F7B0C0EE2091F217
:1039B00020914F02822F82958F7090E002970CF435
:1039C000B2CF80914A0290914B029A8389831B82E5
:1039D000BD82AC822E83CE010196A3CFE83CF105D7
:1039E00008F047C0FE2CEE2009F4B4CF561330C0C7
:1039F00049132EC020914F0220FD21C0822F8295B5
:103A00008F70482F50E041155105C9F0F80125830A
:103A10004F30510541F08F5F982F9295907F822F04
:103A20008F70892B8583C8010E94A11A86E0F80156
:103A3000AAE4B2E001900D928A95E1F742C086E0D7
:103A4000F801AAE4B2E001900D928A95E1F75EC018
:103A50004D875E878D859E850E94081B811163CFEF
:103A600080914F02816080934F02C8010E94A11A89
:103A70004DC07A2DB98AA88A6E2D89890E940D1BA6
:103A800086E0F60111928A95E9F71BC0EE2009F451
:103A900061CF4D875E878D859E850E94081BF82E1D
:103AA000882309F457CF86E0F801AAE4B2E0019038
:103AB0000D928A95E1F78AE492E00E94F8160E943E
:103AC0005B1B0E944D1B22C04D875E878D859E85A6
:103AD0000E946F20292F22952F70223028F49F708A
:103AE00039F0811105C00BC0243028F49F7049F4CF
:103AF000805E883020F0C8010E94A11A9F2CF92C0A
:103B000005C0F8019581907F99F7F9CF8F2D6196C7
:103B10000FB6F894DEBF0FBECDBFDF91CF911F91DE
:103B20000F91FF90EF90DF90CF90BF90AF909F905C
:103B300008951F93CF93DF93CDB7DEB72C970FB6C1
:103B4000F894DEBF0FBECDBF4F83588769877A8751
:103B50008B879C87CE0107960E94C71B8823D1F0D4
:103B60009F8188852A853B85232B31F08F3F31F457
:103B700081E09F3F19F403C081E001C080E080FD37
:103B800047C04F81588569857A858B859C850E94C1
:103B90001C1B3EC086E0FE013796DE0111960190A7
:103BA0000D928A95E1F7FF81E8856A857B8561152D
:103BB000710531F0EF3F31F481E0FF3F19F403C0AC
:103BC00081E001C080E080FD23C02091190230E037
:103BD000C9010196877099274091180250E0841717
:103BE0009507F1F1F983EA837D836C8396E0929FD8
:103BF000D001939FB00D1124A65EBD4FFE013196FA
:103C000001900D929A95E1F7809319020E942C1B66
:103C100016E08091180290911902891771F1189F8E
:103C2000C0011124865E9D4F0E94C71B882329F185
:103C3000E09118021E9FF0011124E65EFD4F4081C5
:103C4000518162817381848195810E941C1B8091C6
:103C5000180290E001968770992780931802D9CFB7
:103C60000E94E01A1092190210921802EAE4F2E09F
:103C700086E0DF011D928A95E9F72C960FB6F8943D
:103C8000DEBF0FBECDBFDF91CF911F910895EF92A0
:103C9000FF920F931F93CF93DF938C01892B09F42D
:103CA0006CC0F12CEE24E394E8012196F801849194
:103CB000843740F4843008F051C0813081F0823084
:103CC00019F15BC0853709F444C0A8F19CE7980F4F
:103CD000903708F052C08F770E94AD1741C00E5F39
:103CE0001F4FFE01849190E2980F983050F4877036
:103CF000FE2D01C0FF0F8A95EAF78F2F0E94D12079
:103D000014C00E94FE162DC00E5F1F4FFE0184914D
:103D100090E2980F983060F48770FE2D01C0FF0F7D
:103D20008A95EAF78F2F0E94D7200E94FC2019C0A5
:103D30000E94AD1716C00E5F1F4FFE01C491CC2329
:103D400081F08FE99FE00197F1F700C00000C150BA
:103D5000F6CF0E5F1F4FFE01F49003C00E94FE16C7
:103D60008E018F2D882309F49FCFEFE9FFE0319773
:103D7000F1F700C000008150F5CFDF91CF911F9186
:103D80000F91FF90EF900895089508950C94C51E2B
:103D90000C94C61E0E94C81E60937C0270937D0224
:103DA00080937E0290937F020C94C61A0C94CA1ED4
:103DB0000F931F9300917C0210917D0220917E024F
:103DC00030917F02602B712B822B932B1F910F91CF
:103DD0000C94CA1E0F931F9300917C0210917D02D8
:103DE00020917E0230917F026023712382239323EE
:103DF0001F910F910C94CA1E0F931F9300917C0288
:103E000010917D0220917E0230917F026027712700
:103E1000822793271F910F910C94CA1E0C94C51EE4
:103E20000E940E1F609378027093790280937A0249
:103E300090937B020C94C61A60E070E0CB010C9466
:103E4000101F0F931F9341E050E060E070E08A0183
:103E50009B0104C0000F111F221F331F8A95D2F748
:103E6000C901B8011F910F910C94101F0F931F935C
:103E700041E050E060E070E004C0440F551F661F51
:103E8000771F8A95D2F78091780290917902A0915C
:103E90007A02B0917B028A019B01082B192B2A2BF5
:103EA0003B2BC901B8011F910F910C94101F0F9368
:103EB0001F9341E050E060E070E004C0440F551FE4
:103EC000661F771F8A95D2F740955095609570953B
:103ED0008091780290917902A0917A02B0917B0250
:103EE0008A019B01082319232A233B23C901B80116
:103EF0001F910F910C94101F0F931F9341E050E0FE
:103F000060E070E004C0440F551F661F771F8A955C
:103F1000D2F78091780290917902A0917A02B091C3
:103F20007B028A019B01082719272A273B27C90101
:103F3000B8011F910F910C94101F0F931F930091C4
:103F400078021091790220917A0230917B02602BE5
:103F5000712B822B932B1F910F910C94101F0F9399
:103F60001F93009178021091790220917A0230918A
:103F70007B0260237123822393231F910F910C9462
:103F8000101F0F931F9300917802109179022091D6
:103F90007A0230917B0260277127822793271F9135
:103FA0000F910C94101F0895292F220F920F990F33
:103FB000890FE82FE695E695E695877051E001C0F8
:103FC000550F8A95EAF785E0E89FF0011124E05B40
:103FD000FD4F20E030E070E04081CB01022E02C0B6
:103FE000969587950A94E2F78170819584278523B9
:103FF000842781932F5F3F4F2530310569F708955E
:10400000292F220F920F990F890F682F66956695B9
:104010006695982F977085E0689FB001112440E065
:1040200050E080E0FB01E40FF51FE05BFD4F2081D5
:1040300030E0092E02C0369527950A94E2F72170E8
:104040003327042E01C0220F0A94EAF7822B4F5F18
:104050005F4F4530510531F70895BF92CF92DF92FF
:10406000EF92FF920F931F93CF93DF938C01C09039
:104070007802D0907902E0907A02F0907B028091F1
:104080007C0290917D02A0917E02B0917F02C82AAD
:10409000D92AEA2AFB2ACFE1D0E0D701C6010C2EAB
:1040A00004C0B695A795979587950A94D2F780FD99
:1040B00004C0219790F7B12C07C0BC2EB8018C2FFB
:1040C0000E94DF040197A9F38B2DDF91CF911F91FF
:1040D0000F91FF90EF90DF90CF90BF900895CF9316
:1040E000DF93EC010E942D20BE010E94DF04DF91CE
:1040F000CF9108951F93CF93DF93EB019091170217
:10410000992321F0CB010E946F2013C0882349F02E
:10411000CB010E942D20182F682FCE010E94D41FA2
:1041200004C0CB010E940020182FBE01812F0E94E5
:10413000DF04DF91CF911F910895809180028595D2
:104140008595859508958091800287700895909156
:104150008002977081E009F480E0089580918C02DC
:10416000089590918C02892B80938C0208958095FC
:1041700090918C02892380938C02089510928C0276
:10418000089590918B02892B80938B0208958095DE
:1041900090918B02892380938B02089510928B0259
:1041A000089590918A02892B80938A0208958095C0
:1041B00090918A02892380938A02089510928A023C
:1041C000089580918102089508950C94E4200C9440
:1041D000E52090918102981721F0809381020C9440
:1041E000E720089580918102882329F010928102AE
:1041F00080E00C94E7200895E0912101F0912201E4
:1042000080918C028083E0912101F09122019081C4
:1042100080918B02892B8083E0912101F091220112
:10422000908180918A02892B8083809181028823EA
:1042300081F0E0912101F09122019081892B80830E
:1042400080912101909122010E940F2281110E94F0
:10425000F22080912101909122010C94C7150C94B9
:10426000E42098E0899F90011124262B209380025E
:104270000E94361F809180028595859585950C94C6
:104280002F211092800280E00C942F212091800237
:104290008095822380938002982F977079F430E084
:1042A000482F082E000C550B2417350739F085953B
:1042B000859585950E94571F0C944121089580E0B3
:1042C00090E00E94BE2F21E08C3E9E4F09F020E03E
:1042D000822F089582E090E00C94B02F83E090E06C
:1042E0000C94B02FCF9384E090E00E94B02FC82FA1
:1042F00081E290E00E94B02F2C2F30E0A901582BD2
:10430000CA01CF910895CF93C92F682F84E090E020
:104310000E94C42F6C2F81E290E0CF910C94C42FA7
:1043200086E090E00C94B02F682F86E090E00C942B
:10433000C42FAB01BC018FE090E00C94D62FAB01F1
:10434000BC0183E190E00C94D62F60E070E0CB01DB
:104350000C949F2160E070E0CB010E9499210C94A5
:10436000A5216CEE7EEF80E090E00E94E22F60E0FD
:1043700082E090E00E94C42F60E083E090E00E9421
:10438000C42F10927C0210927D0210927E02109235
:104390007F0260E084E090E00E94C42F60E081E250
:1043A00090E00E94C42F60E085E090E00E94C42F5E
:1043B00060E086E090E00E94C42F6FEF87E090E01D
:1043C0000E94C42F40E050E0BA0188E090E00E94D3
:1043D000D62F60E08DE090E00E94C42F40E050E0D6
:1043E000BA0188E190E00E94D62F60E087E190E07A
:1043F0000E94C42F40E050E0BA018CE190E00E949E
:10440000D62F60E080E290E00E94C42F0C94AA2195
:104410000C94B121682F8EE090E00C94C42FFC0125
:10442000329697E080E0915029F021912223D9F330
:104430008F5FF9CF0895662349F0FC013296089604
:104440002191621729F0E817F907D1F780E0089564
:1044500081E008959C01FC0132969FEF80E041913C
:10446000461789F09F3F19F4411101C0982F8F5FC3
:104470008630A9F79F3F39F0F901E90FF11D97FD4B
:10448000FA956283089508959C012A5F3F4FFC01CD
:104490004281461301C01282019682179307B9F731
:1044A00008950C942A220C944422029626E0FC01E2
:1044B00011922A95E9F7089508950C945C220C94C2
:1044C0005C22CF930E945F220E9472070E945D22AD
:1044D000C0E08C2F0E94CE06811104C0CF5FCA308D
:1044E000C1F701C081E0CF9108950C945C220C9437
:1044F00075220E9477228091F602843061F1109239
:104500008E0220E488E190E00FB6F894A89580939D
:1045100060000FBE2093600080E00E94311180E0B7
:104520000E945E040E94772283B7817F846083BFEC
:1045300083B7816083BF7894889583B78E7F83BF6C
:104540000FB6F894A8958091600088618093600010
:10455000109260000FBE08950C945C220E94E01A35
:104560000E9422100E94BB150E945E040C94AC2293
:104570001F920F920FB60F9211248F939F93AF93B8
:10458000BF9380918E02811113C08091EC029091B3
:10459000ED02A091EE02B091EF024196A11DB11D76
:1045A0008093EC029093ED02A093EE02B093EF02A1
:1045B000BF91AF919F918F910F900FBE0F901F9061
:1045C000189582E084BD93E095BD9AEF97BD8093E6
:1045D0006E0008952FB7F8948091EC029091ED024F
:1045E000A091EE02B091EF022FBF08959C014FB74A
:1045F000F8948091EC029091ED02A091EE02B091BE
:10460000EF024FBF821B930B089578941F920F9275
:104610000FB60F9211248F939F93AF93BF93809106
:10462000EC029091ED02A091EE02B091EF020196A2
:10463000A11DB11D8093EC029093ED02A093EE02B8
:10464000B093EF02BF91AF919F918F910F900FBEEA
:104650000F901F90189581E08093E00080E2809396
:10466000D8001092C9008FE19EE40197F1F700C0D5
:10467000000087E090EBDC018093FF029093000341
:10468000A0930103B09302039CE088E10FB6F89475
:10469000A895809360000FBE90936000FFCF0E94AA
:1046A0005F21811102C00E9408220E946A2180932A
:1046B0008D020E9472219093F1028093F0020E9479
:1046C0006E21682F70E080E090E00C94D61E8091FF
:1046D000960280FF0BC06091280185E0689FB001C1
:1046E000112475956795759567952BC081FF09C055
:1046F0006091280185E0689FB00111247595679548
:1047000020C082FF07C06091280185E0689FB0014A
:10471000112417C0909195029923D1F0609127013F
:10472000961788F72091280185E0289F9001112491
:10473000929FA001939F500D112470E0CA010E9426
:10474000412F6038710540F46115710519F406C0F8
:1047500065E070E0862F08958FE7089581E0089561
:104760008091960280FF08C06091240170E07595E9
:1047700067957595679521C081FF06C060912401FA
:1047800070E07595679519C082FF04C0609124019F
:1047900070E010C090919502992399F060912301E7
:1047A0009617A0F780912401899FC001112470E021
:1047B0000E94412F6038710540F46115710519F4AC
:1047C00006C061E070E0862F08958FE7089581E0CC
:1047D0000895803F21F40E946723819504C0813FA2
:1047E00029F40E94672380939A020895823F21F45E
:1047F0000E946723819504C0833F29F40E946723A8
:10480000809399020895893F19F40E94B02305C04E
:104810008A3F31F40E94B023819580939B020895D2
:104820008B3F21F40E94B023819504C08C3F29F472
:104830000E94B02380939C020895843F21F48091CC
:104840009802816017C0853F21F4809198028260B0
:1048500011C0863F21F48091980284600BC0873F8D
:1048600021F480919802886005C0883F31F48091DE
:10487000980280618093980208958D3F21F4809181
:10488000960281600BC08E3F21F480919602826077
:1048900005C08F3F29F48091960284608093960230
:1048A0000895803F39F480919A0287FF6CC010927E
:1048B0009A0269C0813F29F480919A021816BCF3CC
:1048C00062C090919902823F29F497FF5CC01092D8
:1048D000990259C0833F19F41916CCF354C0893F8B
:1048E00041F480919B0218160CF04DC010929B026F
:1048F0004AC08A3F29F480919B0287FF44C0F6CFCB
:104900008B3F39F480919C0287FF3DC010929C023E
:104910003AC08C3F29F480919C021816BCF333C036
:10492000843F21F4809198028E7F17C0853F21F447
:10493000809198028D7F11C0863F21F4809198026A
:104940008B7F0BC0873F21F480919802877F05C041
:10495000883F31F4809198028F7E8093980213C033
:104960008D3F21F4809196028E7F0BC08E3F21F403
:10497000809196028D7F05C08F3F29F48091960229
:104980008B7F809396028091990281110EC0809155
:104990009A0281110AC080919B02811106C0809108
:1049A0009C02811102C010929502089587E992E05D
:1049B0000E94D2150E94EA2290939402809393025F
:1049C0000895CF93DF9300D000D000D0CDB7DEB7ED
:1049D00086E0E7E9F2E0DE01119601900D928A95FA
:1049E000E1F780919902811105C080919A02882394
:1049F00009F47AC080919102909192020E94F6226D
:104A0000AC0190919502992339F02091290130E071
:104A10002417350758F068C020912A018AE0289FA2
:104A2000900111242417350718F05EC09F3F19F03C
:104A30009F5F9093950210929B0210929C0280912E
:104A40009902181624F40E9467238093990280919A
:104A5000990287FF05C00E94672381958093990280
:104A600080919A02181624F40E94672380939A0278
:104A700080919A0287FF05C00E94672381958093E9
:104A80009A02309199023323E1F020919A02222375
:104A9000C1F045EB3403C0011124992319F0909320
:104AA000990203C081E08093990235EB2303C00192
:104AB0001124992319F090939A0203C081E0809306
:104AC0009A020E94D624809193029091940290932E
:104AD00092028093910286E0FE013196A7E9B2E04E
:104AE00001900D928A95E1F780919B02811105C09A
:104AF00080919C02882309F47AC080918F02909162
:104B000090020E94F622AC0190919502992339F00F
:104B10002091250130E02417350758F068C0209116
:104B200026018AE0289F900111242417350718F0E8
:104B30005EC09F3F19F09F5F90939502109299027B
:104B400010929A0280919B02181624F40E94B023BE
:104B500080939B0280919B0287FF05C00E94B02337
:104B6000819580939B0280919C02181624F40E94E8
:104B7000B02380939C0280919C0287FF05C00E9415
:104B8000B023819580939C0230919B023323E1F006
:104B900020919C022223C1F045EB3403C001112473
:104BA000992319F090939B0203C081E080939B02AC
:104BB00035EB2303C0011124992319F090939C0233
:104BC00003C081E080939C020E94D62480919302CE
:104BD000909194029093900280938F0286E0FE0160
:104BE0003196A7E9B2E001900D928A95E1F72696F9
:104BF0000FB6F894DEBF0FBECDBFDF91CF91089501
:104C0000E7E9F2E086E0DF011D928A95E9F710926C
:104C10009502109296020895833081F128F4813034
:104C200059F08230D1F00895853009F449C0B8F1C7
:104C3000863009F456C0089580912A01262F30E06D
:104C4000280F311D2F3F310524F4680F60932A018E
:104C500008958FEF80932A01089580912901262FCE
:104C600030E0280F311D2F3F310524F4680F609389
:104C7000290108958FEF80932901089580912801DB
:104C8000262F30E0280F311D2F3F310524F4680F07
:104C90006093280108958FEF8093280108958091F3
:104CA0002701262F30E0280F311D2F3F310524F436
:104CB000680F6093270108958FEF8093270108956F
:104CC00080912401262F30E0280F311D2F3F310520
:104CD00024F4680F6093240108958FEF80932401DA
:104CE000089580912301262F30E0280F311D2F3F9A
:104CF000310524F4680F6093230108958FEF8093AA
:104D000023010895833011F128F4813049F0823075
:104D100091F00895853081F120F18630C1F1089538
:104D200080912A01681720F4861B80932A01089538
:104D300010922A01089580912901681720F4861B9A
:104D400080932901089510922901089580912801E6
:104D5000681720F4861B809328010895109228017B
:104D6000089580912701681720F4861B80932701FE
:104D7000089510922701089580912401681720F466
:104D8000861B809324010895109224010895809138
:104D90002301681720F4861B809323010895109245
:104DA000230108950F931F9341E050E060E070E00D
:104DB0008A019B0104C0000F111F221F331F8A9517
:104DC000D2F7C901B8010E94D61E1F910F910C9411
:104DD000E01A8B3109F474C058F58B3009F492C095
:104DE00078F4863009F446C020F4853009F44CC0CC
:104DF0008BC0873009F456C0883009F483C084C062
:104E0000803109F470C068F48E3009F07DC0809163
:104E10008D0282FB222720F991E0922790FB82F9F4
:104E200058C0863109F46EC0893109F46BC06CC07A
:104E30008A32E9F060F4873209F461C028F48E31D7
:104E400008F462C08D515CC08932F1F05DC08334DA
:104E500050F48A3308F051C0853309F450C08833C8
:104E600009F450C051C0833409F449C04DC00E94B8
:104E7000082248C080918D02817F8E7F80938D02B1
:104E800081E080939E0208950E94E01A2FEF83ED47
:104E900090E3215080409040E1F700C000000E9464
:104EA0002B2330C080918D02982F9095917090FBAC
:104EB00080F980938D02911125C0897F877F10C072
:104EC00080918D0281FB222720F991E0922790FBAF
:104ED00081F980938D029923A9F080918D028160E0
:104EE00080938D020FC080918D0283FB222720F9D1
:104EF00091E0922790FB83F9ECCF895301C080E0C9
:104F00000E94D22681E0089580E0089580E008950F
:104F10000C9486278E518A3030F4E82FF0E0E3536A
:104F2000FE4F8081089580E00895CF93C82F80912F
:104F30009E02813051F018F0823099F17DC00E94BC
:104F4000AE20823209F07AC004C00E94AE208232C4
:104F500061F48C2F0E948827811104C08C2F0E943D
:104F6000E9261DC081E090E01AC08C2F0E948627A0
:104F7000811114C0C43179F048F4CB3079F0C031DC
:104F800009F060C082E080939E0208C0C93219F027
:104F9000C83321F057C010929E0254C081E0817046
:104FA00053C0C93289F118F5C43171F1B0F4C7307A
:104FB00009F046C08EE180932A0182E380932901A3
:104FC0008AE08093280184E18093270188E0809320
:104FD000240188E28093230133C082EE8C0F863057
:104FE00078F58C2F0E948A2780939D0229C0CE34A9
:104FF000E9F020F4CB3421F56AE013C0C13579F033
:10500000C235F1F461E00DC080919D02882319F052
:1050100010929D0215C081E080939E0215C061E050
:1050200006C080919D020E940C260AC06AE0809111
:105030009D020E94822604C010929E0280E004C05D
:1050400081E002C080E0ABCFCF9108958091A702AC
:105050000895CF93DF9300D01F92CDB7DEB7909124
:10506000F602943019F589837B836A8382E080930A
:10507000E9008FEF9091E800815095FD06C095ED15
:105080009A95F1F700008111F5CF8091E80085FF36
:105090000DC040E050E063E070E0CE0101960E9458
:1050A000712A8091E8008E778093E8000F900F902E
:1050B0000F90DF91CF910895CF93DF93EC010E9481
:1050C000542A823011F0843031F4BE0184E0DF9143
:1050D000CF910C942928DF91CF910895BC0183E0F2
:1050E0000C942928CF93DF93EC010E94542A82303C
:1050F00011F08430F9F482E08093E9008FEF909111
:10510000E800815095FD06C095ED9A95F1F70000F5
:105110008111F5CF8091E80085FF0CC040E050E0A0
:1051200066E070E0CE010E94712A8091E8008E77DF
:105130008093E800DF91CF910895CF93DF93EC0146
:105140000E94542A823011F0843039F581E0809336
:10515000E9008FEF9091E800815095FD06C095ED34
:105160009A95F1F700008111F5CF8091E80085FF55
:1051700014C040E050E068E070E0CE010E94712A67
:105180008091E8008E778093E80088E0FE01AFE927
:10519000B2E001900D928A95E1F7DF91CF910895E9
:1051A0008091F502811109C00E94022C0E945F2C9F
:1051B0008091E20084608093E20008951092F502ED
:1051C0000895089508950C94AE2242E061EC81E0C8
:1051D0000E947B2B42E261EC82E00C947B2B80915D
:1051E000F802833009F460C030F4813071F082300D
:1051F00009F499C008958A3009F485C08B3009F408
:105200006BC0893009F0A7C020C08091F702813AB5
:1052100009F0A1C08091E800877F8093E800809129
:10522000FB029091FC02892B21F468E08FE992E067
:1052300003C060E080E090E070E00E94BC2A8091B2
:10524000E8008B778093E80008958091F70281321F
:1052500009F081C08091FB029091FC02029708F056
:105260007AC08091E800877F8093E8008091E80011
:1052700082FD05C08091F6028111F8CF6CC02091AB
:10528000F3008091F20090E0922B029729F4809134
:10529000F1008B7F813021F48091F1008093A7028F
:1052A0008091E8008B7753C08091F702813A09F032
:1052B00052C08091FB029091FC02892B09F04BC0F7
:1052C0008091E800877F8093E8008091E80080FF6C
:1052D000FCCF8091350136C08091F7028132D9F53B
:1052E0008091FB029091FC02892BA9F58091E80046
:1052F000877F8093E8000E94B02B8091F902809311
:1053000035010C94E01A8091F702813221F58091E9
:10531000E800877F8093E8000E94B02B8091FA021A
:105320008093A80208958091F702813AA1F48091B8
:10533000E800877F8093E8008091E80080FFFCCF41
:105340008091A8028093F1008091E8008E7780938D
:10535000E8000C94B02B089584B7877F84BF0FB604
:10536000F894A89580916000886180936000109205
:1053700060000FBE90E080E80FB6F8948093610063
:10538000909361000FBE0E941C160E94022C0E9486
:105390005F2C8091E20084608093E20078940E9408
:1053A000F42E0E9422168BE291E00E94B6158091A5
:1053B000F602853069F40E9479228091F4028823F4
:1053C000B1F30E946122882391F30E945B2AEFCF00
:1053D0000E942E16ECCF0C94ED29292F3327233071
:1053E0003105C9F060F42130310581F022303105FA
:1053F00009F04AC08BE390E021E536E049C0213254
:10540000310511F12232310579F13EC082E190E09F
:105410002CE836E03DC099278130910561F040F0DD
:105420008230910559F0039779F5EBE0F6E008C07A
:10543000EDE4F6E005C0EDE3F6E002C0E1E1F6E000
:10544000849190E09F0124C06115710541F06130A5
:105450007105D1F489E090E02CE736E019C089E0CD
:1054600090E023E636E014C06115710541F061302B
:10547000710551F481E890E02EE936E009C080E43E
:1054800090E02FE137E004C080E090E020E030E0E1
:10549000FA013183208308958091F602843011F05F
:1054A00081E0089582E008958091A902811102C0EF
:1054B0000C944C2A089580E189BD82E189BD09B42C
:1054C00000FEFDCF8091D8008F7D8093D800809121
:1054D000E00082608093E0008091E00081FDFCCFDD
:1054E0000895CF92DF92EF92FF920F931F93CF9385
:1054F000DF93EC018B017A010E94CF2B811133C025
:10550000E114F10439F0F70180819181081B190B36
:10551000C80FD91FC12CD12C0115110519F180918B
:10552000E80085FD16C08091E8008E778093E80042
:10553000E114F10449F0F70180819181C80ED91E70
:10554000D182C08285E00FC00E94CF2B882321F337
:105550000AC089918093F10001501109FFEFCF1A21
:10556000DF0ADACF80E0DF91CF911F910F91FF909A
:10557000EF90DF90CF9008952091FD023091FE02D0
:105580002617370748F06115710539F42091E800B6
:105590002E772093E80001C0B901FC0120E06115DD
:1055A000710579F18091F6028823F1F18530F1F1EE
:1055B0008091E80083FD3CC08091E80082FD2EC010
:1055C0008091E80080FFEBCF2091F3008091F20002
:1055D00090E0922B6115710551F08830910538F4F7
:1055E00021912093F100615071090196F3CF21E0E0
:1055F000089709F020E08091E8008E778093E8001A
:10560000CECF2111CFCF0AC08091F602882361F05E
:10561000853061F08091E80083FD0AC08091E80048
:1056200082FFF2CF80E0089582E0089583E008953C
:1056300081E008952091FD023091FE022617370780
:1056400048F06115710539F42091E8002E77209318
:10565000E80001C0B901FC0120E06115710591F17C
:105660008091F602882309F440C0853009F43FC0D8
:105670008091E80083FD3DC08091E80082FD2FC04D
:105680008091E80080FFE9CF2091F3008091F20043
:1056900090E0922B6115710559F08830910540F426
:1056A00024912093F1003196615071090196F2CF57
:1056B00021E0089709F020E08091E8008E77809340
:1056C000E800CBCF2111CCCF0AC08091F60288230D
:1056D00061F0853061F08091E80083FD0AC080911F
:1056E000E80082FFF2CF80E0089582E0089583E031
:1056F000089581E00895982F973068F59093E90018
:10570000981739F07091EC002091ED005091F00065
:1057100003C0242F762F50E021FD02C09F5FECCF05
:105720003091EB003E7F3093EB003091ED003D7FF8
:105730003093ED003091EB0031603093EB007093CB
:10574000EC002093ED005093F0002091EE0027FD37
:10575000E5CF80E008958F708093E90081E008959F
:105760008091F70287FF11C08091E80082FD05C09B
:105770008091F6028111F8CF11C08091E8008B77FB
:105780000BC08091F602882349F08091E80080FFE9
:10579000F8CF8091E8008E778093E80008952091FB
:1057A000E4003091E50095E64091EC00842F817093
:1057B00040FF23C08091E80080FD1DC08091F6026B
:1057C000882399F0853099F08091EB0085FD11C018
:1057D0004091E4005091E5002417350729F39150DA
:1057E00011F09A01E1CF84E0089582E0089583E00A
:1057F000089581E0089580E008954091E80042FF17
:10580000DDCF08950E94702C0E94782CE0EEF0E02D
:10581000808181608083E8EDF0E080818F778083F4
:1058200019BCA7EDB0E08C918E7F8C9380818F7E28
:1058300080831092F50208950F931F93CF93DF9307
:105840000E94702C0E94782CC8EDD0E088818F7760
:10585000888388818068888388818F7D888319BC4C
:105860001092F6021092F2021092F4021092F302D9
:1058700000EE10E0F80180818B7F80838881816059
:10588000888342E060E080E00E947B2BE1EEF0E064
:1058900080818E7F8083E2EEF0E080818160808372
:1058A000808188608083F80180818E7F80838881F9
:1058B00080618883DF91CF911F910F910895E8ED6A
:1058C000F0E080818F7E8083E7EDF0E08081816071
:1058D000808384E082BF81E08093F5020C941C2CCD
:1058E000E8EDF0E080818E7F80831092E2000895E1
:1058F0001092DA001092E10008951F920F920FB6F5
:105900000F9211242F933F934F935F936F937F9345
:105910008F939F93AF93BF93EF93FF938091E10099
:1059200082FF0BC08091E20082FF07C08091E100FE
:105930008B7F8093E1000E94F32E8091DA0080FF3C
:105940001FC08091D80080FF1BC08091DA008E7F3D
:105950008093DA008091D90080FF0DC080E189BD7D
:1059600082E189BD09B400FEFDCF81E08093F6029B
:105970000E94D02805C019BC1092F6020E94DE28B1
:105980008091E10080FF19C08091E20080FF15C086
:105990008091E2008E7F8093E2008091E20080613E
:1059A0008093E2008091D80080628093D80019BC77
:1059B00085E08093F6020E94E2288091E10084FF56
:1059C00030C08091E20084FF2CC080E189BD82E17B
:1059D00089BD09B400FEFDCF8091D8008F7D8093F2
:1059E000D8008091E1008F7E8093E1008091E200F9
:1059F0008F7E8093E2008091E20081608093E200DC
:105A00008091F202882311F084E007C08091E300C6
:105A100087FD02C081E001C083E08093F6020E940E
:105A2000E3288091E10083FF29C08091E20083FF99
:105A300025C08091E100877F8093E10082E0809320
:105A4000F6021092F2028091E1008E7F8093E100D5
:105A50008091E2008E7F8093E2008091E20080617D
:105A60008093E20042E060E080E00E947B2B809126
:105A7000F00088608093F0000E94E128FF91EF9190
:105A8000BF91AF919F918F917F916F915F914F9156
:105A90003F912F910F900FBE0F901F9018951F925E
:105AA0000F920FB60F9211242F933F934F935F9352
:105AB0006F937F938F939F93AF93BF93CF93DF9316
:105AC000EF93FF93C091E900CF708091EC00D82F45
:105AD000D17080FDD0E81092E9008091F000877FBE
