:100000000C94B0030C949E140C94F7030C94F70317
:100010000C94F7030C94F7030C94F7030C94F70378
:100020000C94F7030C94F7030C94AA2C0C947C2DDD
:100030000C94CA220C94F7030C94F7030C94F70366
:100040000C94F7030C94F7030C94F7030C94F70348
:100050000C94F7030C9432230C94F7030C94F703DD
:100060000C94F7030C94F7030C94F7030C94F70328
:100070000C94F7030C94F7030C94F7030C94F70318
:100080000C94F7030C94F7030C94F7030C94F70308
:100090000C94F7030C94F7030C94F7030C94F703F8
:1000A0000C94F7030C94F7030C94F703BA0FBD0FED
:1000B000C20FC90FCE0FD30FD80FDD0FE20FE70F1E
:1000C000EC0FF10FF30FF60FF90FFC0FFF0F0210FB
:1000D000041009106318631895189518E218001990
:1000E000581A581A4219D719E819E819481A581A0B
:1000F000581A511AED1AED1AFF1AFF1AF61AFF1ABA
:10010000FF1AFF1AED1AED1AFB1AFF1AFF1AFB1A53
:10011000E92D102E082F102E082F5C2E7F2E082F71
:10012000D62EE52E35001E001F00200021002200E3
:100130002B0014001A000800150017002900040005
:100140001600070009000A00E1001D001B00060060
:1001500019000500E00005510351E300E2002C0006
:10016000230024002500260027002A001C00180078
:100170000C00120013002F000B000D000E000F00EA
:1001800033003400110010003600370038008700BB
:100190002800E6000451510065004F0035001E00A4
:1001A0001F002000210022002B0014001A0009006B
:1001B00013000A00290004001500160017000700AC
:1001C000E1001D001B000600190005000551E000BC
:1001D000E200E30003512C00230024002500260048
:1001E00027002A000D000F0018001C0033004C00EF
:1001F0000B00110008000C00120034000E0010006B
:1002000036003700380028002C00045150005100FF
:1002100052004F0035001E001F0020002100220068
:100220002B0034003600370013001C0029000400A6
:100230001200080018000C00E100330014000D004B
:100240000E001B000551E000E200E30003512C000A
:10025000230024002500260027002A0009000A00A8
:10026000060015000F004C0007000B0017001100DE
:1002700016003800050010001A0019001D002800A3
:100280002C0004515000510052004F0035021E0254
:100290001F0220022102220235021E021F0220023A
:1002A000210222024C003A003B003C003D003E008F
:1002B00001004000410042004300440001000100F1
:1002C0000100010001000100230224022D002E0084
:1002D00089002A0023022402250226022702300078
:1002E0003F002D022E022F02300232004500320262
:1002F000640201000100010001000100AB00AA003E
:10030000A900AE0035001E001F00200021002200C1
:1003100035001E001F002000210022004C003A0082
:100320003B003C003D003E00010040004100420017
:100330004300440001000100010001000100010030
:10034000230024002500260027002A002300240083
:100350002500260027004C003F002D002E002F0016
:10036000300031004500320064000100010001004E
:1003700001000100AB00AA00A900AE003A003B005A
:100380003C003D003E003F000100005CC25CC35CDD
:10039000C65CC55C0100010001001D5C1E5C135CB5
:1003A00001000100640010501150125001000100C2
:1003B0000100E7000100010040004100420043004D
:1003C00044004C00C85CC75C0100010045003000DF
:1003D0000A5C5000510052004F00320001006400DE
:1003E0000100010001000100010001000100010005
:1003F000CA5CC95C00047F3F1F6432146432147805
:100400003C1E1E140A052223252628292A2C2D2FBE
:100410003032333536383A3B3D3E4042434547491A
:100420004A4C4E5051535557595A5C5E606264664F
:1004300068696B6D6F71737577797B7D7F8183855B
:1004400087898A8C8E90929496989A9C9E9FA1A35D
:10045000A5A7A8AAACAEAFB1B3B4B6B8B9BBBCBE81
:10046000BFC1C2C3C5C6C7C9CACBCCCDCED0D1D2FD
:10047000D2D3D4D5D6D7D7D8D9D9DADADBDBDBDCFF
:10048000DCDCDCDCDDDDDDDDDCDCDCDCDCDBDBDBAB
:10049000DADAD9D9D8D7D7D6D5D4D3D2D2D1D0CE0B
:1004A000CDCCCBCAC9C7C6C5C3C2C1BFBEBCBBB910
:1004B000B8B6B4B3B1AFAEACAAA8A7A5A3A19F9E8E
:1004C0009C9A98969492908E8C8A89878583817F56
:1004D0007D7B79777573716F6D6B69686664626037
:1004E0005E5C5A5957555351504E4C4A4947454303
:1004F00042403E3D3B3A3836353332302F2D2C2AA0
:10050000292826252322FFAA7F5540000101010149
:1005100001010101010202020202020202020303BE
:10052000030303030303040404040404040505058E
:100530000505060606060607070707070808080850
:10054000090909090A0A0A0B0B0B0C0C0C0D0D0DFD
:100550000E0E0E0F0F0F1010111111121213131493
:1005600014151516161717181819191A1A1B1B1C0B
:100570001D1D1E1E1F202021222223242425262665
:10058000272829292A2B2C2D2D2E2F30313232339A
:100590003435363738393A3B3C3D3E3F40414243A3
:1005A0004445464748494A4C4D4E4F505153545587
:1005B0005658595A5B5D5E5F616264656668696B37
:1005C0006C6D6F7072737577787A7B7D7E808283B5
:1005D0008587888A8C8E8F91939596989A9C9EA0F9
:1005E000A2A3A5A7A9ABADAFB1B3B5B7BABCBEC006
:1005F000C2C4C6C9CBCDCFD1D4D6D8DBDDDFE2E4CF
:10060000E7E9EBEEF0F3F5F8FAFDFF040330000044
:10061000002A0354006800650020004E0079007134
:1006200000750069007300740020004B00650079BC
:100630000062006F0061007200640000000E034B56
:100640000065006500620069006F00000004030996
:100650000409023B00020100A0FA090400000103A2
:100660000101000921110100012240000705810359
:1006700008000A090401000103000000092111011A
:1006800000012281000705820320000A12011001E7
:100690000000000810CB5611000301020301050100
:1006A0000902A10185020901A10005091901290515
:1006B00015002501950575018102950175038101DC
:1006C0000501093009311581257F950275088106DC
:1006D00009381581257F950175088106050C0A38B2
:1006E000021581257F950175088106C0C0050109A5
:1006F00080A101850319012AB700150126B70095CD
:100700000175108100C0050C0901A10185041901C2
:100710002AA002150126A002950175108100C005CE
:10072000010906A101050719E029E7150025019532
:1007300008750181029501750881010507190029D5
:10074000FF150026FF0095067508810005081901B0
:100750002905950575019102950175039101C00068
:1007600011241FBECFEFDAE0DEBFCDBF04B603FE1B
:1007700027C08091FF0290910003A0910103B091E6
:1007800002038730904BA740B04BD1F41092FF0288
:1007900010920003109201031092020314BE84B75A
:1007A000877F84BF0FB6F894A89580916000886118
:1007B00080936000109260000FBEE0E0F8E30995BE
:1007C00011E0A0E0B1E0EEE4F0E602C005900D9289
:1007D000A83DB107D9F722E0A8EDB1E001C01D9214
:1007E000AF3FB207E1F70E94D9290C9425300C9451
:1007F00000000C94D90681E0089581E008950C94DE
:10080000FD0308950C9401041F93CF93DF9300D050
:1008100000D01F92CDB7DEB749835A836B832091F6
:10082000170289819A81211112C0662349F00E9422
:100830003F20182F682F89819A810E94E61F03C0EC
:100840000E941220182F69817A81812F04C00E9492
:100850003F2069817A810F900F900F900F900F9039
:10086000DF91CF911F910C94BF04FC014081518115
:100870006281738184810C940404CF93DF93EC0133
:100880000E943504BE01DF91CF910C9402040E94B6
:100890007121811102C00E941A220E948E110C94B3
:1008A000F9030C94D70608950C94530481E008953D
:1008B0000C945604CF93C82F0E9454048C2F0E948E
:1008C0005804CF91089508950E94DB1A0E94630492
:1008D0002FEF84E39CE0215080409040E1F700C07E
:1008E00000000C9458230F931F93CF93DF93EC01D8
:1008F0000E9435048C01BE010E94FF038823A9F1E8
:10090000BE01C8010E94F710882379F1BE01C80119
:100910000E945112882349F1BE01C8010E9492121F
:10092000882319F1BE01C8010E94BD138823E9F094
:10093000BE01C8010E94A40F8823B9F08A818823D0
:1009400069F001158CE5180731F00E3D1C4531F4B6
:100950000E941A220AC00E94640407C0CE01DF91DF
:10096000CF911F910F910C94FB0380E0DF91CF9109
:100970001F910F91089580E090E0089508952CE371
:10098000829FC0011124FC0126E0729FE00DF11D41
:100990001124E60FF11DEE0FFF1FEC5DFE4F859158
:1009A00094910895880F991FFC01EC50FC4F85919C
:1009B00094910895CF93DF930E94BF040E94F205A3
:1009C000EC018115904508F041C0C11580E4D807BD
:1009D00008F0D1C0C83ED10510F5C03ED10508F0E1
:1009E000FDC0C83AD10578F4C53AD10508F0A2C0D7
:1009F000C130D10509F4F2C008F4EEC0C430D1050D
:100A000008F0ECC0E9C0CF3BD10508F49BC0C03C66
:100A1000D10508F4E1C0CE01805C91099EC0C115EA
:100A200090E2D90758F4C11521E0D20708F0D6C0EA
:100A3000C03FD10508F4D0C0D065D0C0C11580E357
:100A4000D80708F08EC0CE019F7087C0C11595E50C
:100A5000D90708F043C0C11524E5D20708F0A2C0A9
:100A6000C11582E5D80708F5C11591E5D90708F049
:100A700085C0CE0174E0969587957A95E1F78370ED
:100A80009C2F937021E030E002C0220F331F9A9513
:100A9000E2F73C68382BCF70C695C69580E2C89FB8
:100AA000E0011124C22BD32B99C09E012370332760
:100AB0008C2F86958695C115D34508F064C0C1E09A
:100AC000D0E002C0CC0FDD1F2A95E2F720E2829F22
:100AD000C0011124C82BD92BDC6880C0C11529E5C1
:100AE000D207A0F4C11588E5D80708F060C0C11589
:100AF00096E5D90708F070C08C2F0E9486068F718A
:100B0000C82FD0E0DC2FCC27D06268C0C1152AE501
:100B1000D20708F451C0CE0190568115904208F0DA
:100B20005BC08D2F8F710E948606DD27D0628F718A
:100B3000D82B54C0C55AD0E0CC59DE4FC881D0E084
:100B4000D0644CC0C85AD0E0CC0FDD1FCA5CDE4F69
:100B50000990D881C02DD46441C00E94D204EC0118
:100B60003DC0CE019927D3FF03C0EC01D86C36C03D
:100B7000EC01D06C33C0DF70D06A30C0DC2FCC27E2
:100B8000C16FD06A2BC0C1E0D0E002C0CC0FDD1F26
:100B90002A95E2F720E2829FC0011124C82BD92BAD
:100BA000DA681CC0DC2FCC27C46FD06A17C0DC2FDA
:100BB000CC27C06FD06A12C08C2F8F700E9486061F
:100BC00094E0D695C7959A95E1F7CF70D0E0DC2FE9
:100BD000CC27D069C82B02C0C0E0D0E0CE01DF91A5
:100BE000CF9108958238910569F1B0F48133910570
:100BF00009F46DC048F48932910509F463C08A3262
:100C0000910509F469C008958533910509F455C02B
:100C100089339105B9F00895833E910569F138F45F
:100C2000803E9105B1F0823E910509F10895863E1E
:100C30009105A9F1873E9105B9F1843E910509F02E
:100C400064C023C02091F00220FD4FC021FD4DC0A3
:100C500008958091F00280FD44C08091F10280FFF0
:100C600044C08091F00284FD42C083EE4DC080916B
:100C7000F00282FF38C0F5CF8091F00282FD33C0D0
:100C80008091F10280FD31C0ECCF8091F10281FFB3
:100C900032C08091F00284FD2AC087EE35C0809179
:100CA000F00283FF26C0F5CF8091F00283FD21C0C2
:100CB0008091F10281FD1FC0ECCF8091F00285FD93
:100CC0001CC01DC08091F00285FD19C016C0809126
:100CD000F00286FD16C017C08091F00286FD13C099
:100CE00010C089E311C082EE0FC080EE0DC080E01D
:100CF0000BC086EE09C084EE07C089E205C085E31B
:100D000003C08AE201C081E390E008959091F0026F
:100D100092FF0DC0282F2871283019F4877F846036
:100D200006C0282F2471243011F48B7F886093FF34
:100D30000DC0282F2871283119F4877E846106C0E0
:100D4000282F2471243111F48B7E88612091F102C7
:100D500020FF0DC0382F3871383019F4877F81603B
:100D600006C0382F3171313011F48E7F886021FF39
:100D70000DC0282F2871283119F4877E816106C0A3
:100D8000282F2171213111F48E7E886194FD877E98
:100D90000895E82FF0E0EC54FD4F80810895089508
:100DA00080EA8A95F1F7089508950C94D4060C947E
:100DB000D5060C94D4060895CF93DF930E945D0866
:100DC0008091000180910001811102C095E001C075
:100DD00090E09093BF0285E0891B8093BE02ADE650
:100DE000B1E042E751E061E070E08D91E82FE295DB
:100DF000EF70F0E021A18F70EB0102C0CC0FDD1F7E
:100E00008A95E2F7CE019C2F9095922391A392A10F
:100E1000892B82A34A175B0741F7A7E6B1E04DE6AD
:100E200051E061E070E08D91E82FE295EF70F0E025
:100E300021A18F70EB0102C0CC0FDD1F8A95E2F774
:100E4000CE019C2F9095922391A392A1892B82A3EE
:100E50004A175B0741F7EAEAF2E0A4EBB2E084EB61
:100E600092E011921D928E179F07D9F785E00E949C
:100E700002080E944704DF91CF910C9471080E94F0
:100E80004008882309F18091BE0290E08C549D4F68
:100E90000E94A108811114C08091D8018F5F8093B6
:100EA000D801863078F0E091BE02F0E0EC54FD4FBE
:100EB00080E090E01192019685309105D9F702C04B
:100EC0001092D8010C9451048091BF0290E08C5490
:100ED0009D4F0E94CA080C94DB063F924F925F928E
:100EE0006F927F928F929F92AF92BF92CF92DF923A
:100EF000EF92FF920F931F93CF93DF938DE6882E8F
:100F000081E0982E0AEA12E09FEA692E92E0792E9B
:100F1000512CCC24C394D12C5801D8013C901C9264
:100F2000F40181914F01C82FC295CF70D0E099A1F3
:100F30008F70760101C0EE0C8A95EAF7892F8E2911
:100F400089A38AA14E2C409484218AA30E94D006B2
:100F5000E7E6F1E020E030E09191A92FA295AF7093
:100F6000B0E090964C91D8016C9150E09F7002C017
:100F7000559547959A95E2F740FD08C09C2D022EA5
:100F800001C0990F0A94EAF7892F01C080E0862BEF
:100F9000D8018C932F5F3F4F26303105E9F689A1A8
:100FA000482249A28AA1E82AEAA20F5F1F4F81E0E6
:100FB000F5019081931101C080E0582A60167106F6
:100FC00009F0AACF6091BF0270E06C547D4F252DCF
:100FD00045E08AEA92E00E9403080E943F07852DBF
:100FE000DF91CF911F910F91FF90EF90DF90CF9005
:100FF000BF90AF909F908F907F906F905F904F9039
:101000003F9008950895FF920F931F93CF93DF931E
:101010008C01F62ED72FC42F222349F081E0809334
:10102000DB010E94FC229093DA018093D901809128
:10103000DB018823C1F08091D9019091DA010E94EF
:101040000823069780F0EF2DFD2FD8014C2F50E09C
:10105000CD01801B910B841795071CF48D91819312
:10106000F7CF1092DB01DF91CF911F910F91FF908D
:10107000089555985D9889B185FB882780F9089572
:101080008091DC01811112C08091D8008061809331
:10109000D8008AE18A95F1F700C08091D90080FDDF
:1010A00002C082E001C081E08093DC0181E0909188
:1010B000DC01913009F080E008950E9439088093A6
:1010C00000018091000166E0882311F080E001C0FA
:1010D00086E00E946F090E94400881110C947808F4
:1010E00008950E944008811102C00C947E08089562
:1010F00062E070E081E091E00C944C1462E070E0FA
:1011000081E091E00C9455140E947B0D882361F0DE
:1011100085EE91E00E94810D81E090E00E942E1505
:10112000892B11F40C947E0D08958091E401883090
:1011300039F460E085EE91E00E94590E1092E401CE
:101140000895CF93DF93D82FC92F0E94840880E0A1
:1011500090E00E942E15892BC9F4ED2FFC2F80E022
:1011600090E0DC01A152BE4F2C9121930196853075
:101170009105B9F70E941310882319F00E941710E7
:1011800001C080E08093DE0181E001C080E0DF915A
:10119000CF910895CF93DF93D82FC92F0E94950840
:1011A000ED2FFC2F80E090E02191DC01A152BE4F99
:1011B0002C93019685309105B9F78091DE01DF917E
:1011C000CF910C942C11EF92FF920F931F93CF931A
:1011D000DF93F62E472FE82FF0E0711106C0E55F90
:1011E000FA4F6491762F862F72C0272F30E0E55F8B
:1011F000FA4FE4910E2F10E056E0659FC0011124D4
:10120000CFEFD0E0BE010E945A2F5BEA5603C00127
:10121000579F900D11248F0D911D8F0D911D982FAB
:10122000990F890F7E01E21AF30AE09ED001E19E38
:10123000B00DF09EB00D1124489FA0011124452F40
:1012400055277E01E41AF50AE09EA001E19E500DAB
:10125000F09E500D11247E01E81AF108E29EC001B3
:10126000E39E900DF29E900D1124892F9927C81BA3
:10127000D90BC09FC001C19F900DD09F900D11242C
:101280006230710591F048F461157105E1F061304B
:101290007105A9F48B2F752F19C06430710561F0A9
:1012A00038F06630710579F00AC0892F7B2F0EC0A7
:1012B0008E2F7B2FE52F0AC08E2F792F02C0852F0E
:1012C0007E2FEB2F03C08B2F7E2FE92F6E2FDF9108
:1012D000CF911F910F91FF90EF9008950895809303
:1012E000F401609315010895CF93DF93762FE90100
:1012F000682F842F0E94E308798368838A83DF91B3
:10130000CF9108958091C002282F269530E02115B5
:10131000310519F48170826005C02532310524F051
:10132000817088648093C002089588E090E00C94F6
:10133000E52FCF92DF92EF92FF926B017C010E942A
:101340008209B701A60188E090E0FF90EF90DF905E
:10135000CF900C940330E0ECF2E083E080831182C4
:101360008FEF828383831482ACEFB1E012968C916D
:101370001297836012968C93608171818281938130
:101380000C9499098091C00280FF02C0869508954F
:1013900080E008958091C402833018F48F5F8093B9
:1013A000C4026091C0027091C1028091C20290910A
:1013B000C3020C9499098091C402882319F08150CA
:1013C0008093C4026091C0027091C1028091C202F8
:1013D0009091C3020C9499096091150170E080917D
:1013E000C00280FF0AC08091F40123E0829FC00107
:1013F00011248B539D4F0C94DA118091F30190913D
:101400001401891780F7E82FF0E09F01220F331FA6
:10141000E20FF31FEB53FD4F1182108212828F5F98
:10142000F0CF9091C00290FF16C09091F3012091EF
:101430001401921770F4E92FF0E0DF01AA0FBB1F2F
:10144000EA0FFB1FEB53FD4F8183608342839F5F55
:10145000F0CF0C94EC090895CF93DF9300D01F9246
:10146000CDB7DEB79091C00290FF0AC09E012F5FFA
:101470003F4F0E9474094B8169818A810E94110A41
:101480000F900F900F90DF91CF910895CF93DF933E
:10149000EC01EC81F0E0EA5FFB4F4491E0ECF2E01C
:1014A000628181810E942C0A8C818F5F8C83DF9105
:1014B000CF910895CF93DF93EC01E0ECF2E043810C
:1014C00062818C810E942C0A8C818F5F8C83DF91DA
:1014D000CF9108950F931F93CF93DF9300D01F9266
:1014E000CDB7DEB78C018091ED0181110AC09E015C
:1014F0002F5F3F4F4FEF6FEF0E9474098A818093F7
:10150000ED01F8018481813051F028F0823061F4DE
:101510004091ED010AC08091ED0140E007C060916B
:10152000ED0140E080E003C040E080E060E00E9428
:10153000110AF801848190E0019663E070E00E9456
:101540006E2F84830F900F900F90DF91CF911F919A
:101550000F910895AF92BF92CF92DF92EF92FF92D8
:101560000F931F93CF93DF9300D01F92CDB7DEB7B9
:10157000182FF62E042FE22E9091C00290FF7EC00D
:10158000E92FE695AE2FB0E0A958BE4F8C9180931D
:10159000FC019E7F923061F49E012F5F3F4F812FAF
:1015A0000E9474094B8169818A810E94110A43C09B
:1015B000823019F40091C3023EC0863019F41091B4
:1015C000C10239C08930D9F38931A9F5E9518E2F8B
:1015D0008170D82EE695F0E0EA5FFA4FA590B490BE
:1015E000C12CBB2460911301C61618F52C2D30E0D8
:1015F000A29EC001A39E900DB29E900D112470E09A
:101600000E945A2F812FD11002C0860F01C0861B65
:101610009091F301290F311DA901440F551F240F8B
:10162000351F2B533D4F402F6F2D0E947409C394DB
:10163000D9CF0E94EC098091C102181308C0809193
:10164000C202F81204C08091C302081729F08091E9
:10165000FE0182608093FE011093C102F092C202EB
:101660000093C302EE2051F06091C0027091C1025C
:101670008091C2029091C3020E9499090F900F902D
:101680000F90DF91CF911F910F91FF90EF90DF901E
:10169000CF90BF90AF900895E0ECF2E09181282FB9
:1016A0004381628188E0890F0C94AA0A81E00C943E
:1016B0004C0BE0ECF2E09181282F4381628188EFAE
:1016C000890F0C94AA0A81E00C94590BE0ECF2E02B
:1016D000628121E1620F08F46FEF282F438181813D
:1016E0000C94AA0A81E00C94660BE0ECF2E06281B3
:1016F00021E1621B08F460E0282F438181810C9472
:10170000AA0A81E00C94750BE0ECF2E0438121E140
:10171000420F08F44FEF282F628181810C94AA0AAE
:1017200081E00C94840BE0ECF2E0438121E1421B68
:1017300008F440E0282F628181810C94AA0A81E09C
:101740000C94930B20E00C94AA0AFF920F931F9322
:10175000CF93DF93EC01F12C0FEF10E060911301B8
:10176000F616F0F48091F3012F2D30E0280F311D93
:10177000C901880F991F280F391F2B533D4F70E067
:10178000C8010E946E2F962F8C814091C3026091F8
:10179000C202F99E800D11240E947409F394DECFD9
:1017A0000E94EC099A818C8190FF02C08F5F01C07A
:1017B00081508C83DF91CF911F910F91FF900895FD
:1017C0008F929F92AF92BF92CF92DF92EF92FF9251
:1017D0000F931F93CF93DF93EC018A8180FF03C0A7
:1017E000BB24BA9402C0BB24B3948C8181110DC078
:1017F00081E0B81206C08091130181508093EF01FF
:1018000002C01092EF0181E08C83A12C4CE0942E59
:1018100080911301A81608F044C08091F301CA2CEE
:10182000D12C8601080F111DC801880F991F080FC0
:10183000191F0B531D4FF80111821082128234E0E0
:10184000E32EF12C812C8091EF01880D8D302CF04E
:10185000692D0E944C2F892F05C087FF03C09091EE
:101860001301890F082E000C990BC816D90691F4A4
:101870008091C3028E9DA0018F9D500D112455951E
:1018800047955595479598016091C2028091C10294
:101890000E9474098B0CF1E0EF1AF108A1F6A394F1
:1018A000B7CF0E94EC098091EF0191E0B9120EC010
:1018B000811107C08091130181508093EF011C8238
:1018C0000FC081508093EF01BC820AC090E0019666
:1018D0006091130170E00E946E2F8093EF018C8362
:1018E000DF91CF911F910F91FF90EF90DF90CF90FC
:1018F000BF90AF909F908F9008951F93CF93DF93E9
:10190000EC018C81811109C081E08C831092EE0181
:1019100092E090931201809311018091F3019091D4
:101920001401891770F4E82FF0E09F01220F331F94
:10193000E20FF31FEB53FD4F1182108212828F5F73
:10194000F0CF10E0609113011617C0F5E12FF0E021
:1019500070E0CF010E946E2F2091F301820F209141
:10196000EE01022E000C330B90E0E217F307CCF0EF
:1019700020911201022E000C330B2E173F078CF022
:101980009C01220F331F820F931F9C012B533D4F4D
:101990004091C3026091C2028091C1020E94740909
:1019A0000BC0FC01EE0FFF1F8E0F9F1FFC01EB53BE
:1019B000FD4F1182108212821F5FC4CF0E94EC097A
:1019C000809111012091EE01280F2093EE0190915A
:1019D0001201980F9093120119165CF4022E000C5C
:1019E000330B4091130150E0415051092417350742
:1019F00034F0819580931101813009F41C82DF91CC
:101A0000CF911F9108950F931F93CF93DF938C0174
:101A1000FC01848195810196817099279583848347
:101A2000C0E0D5E580911301C81700F58091F3015E
:101A30002C2F30E0280F311DC901880F991F280F66
:101A4000391F2B533D4F4C2F4695F80184819581CA
:101A5000840F911D81704091C3026091C2028D9FDD
:101A6000802D11240E947409CF5FDCCFDF91CF91CC
:101A70001F910F910C94EC090F931F93CF93DF9359
:101A8000EC0100E010E080911301282F30E00217F4
:101A9000130724F59091F3019801290F311DA90135
:101AA000440F551F240F351F2B533D4F869590E053
:101AB0004C81081719071CF4442331F002C041116E
:101AC00003C04091C30201C040E06091C202809116
:101AD000C1020E9474090F5F1F4FD5CF0E94EC090D
:101AE0008C8190E00196817099278C83DF91CF9152
:101AF0001F910F9108958091FE0108951092FE01AB
:101B0000089525E0E0ECF2E0DC0101900D922A95C9
:101B1000E1F72091FC013091FD014091FE01FC01B3
:101B200025833683478308956091C002669570E0EF
:101B30004BE050E086E191E00E94D02F892B19F410
:101B400081E08093FD010E94FC229093F601809336
:101B5000F5018091FE0184608093FE010895ECEF11
:101B6000F1E0118282818460828308959091C002A5
:101B700090FF3AC09170811102C0926006C0853218
:101B800010F0986402C0880F982B9093C002809147
:101B9000FE0181608093FE01662351F06091C002D6
:101BA0007091C1028091C2029091C3020E94990972
:101BB0006091C002669570E04BE050E086E191E0F4
:101BC0000E94D02F892B19F00E94AF0D02C00E94F5
:101BD000940D81E08093F8014091C3026091C202AC
:101BE0008091C1020C94A20B0895682F9091C002BD
:101BF000969581E0890F853208F081E00C94B60D4E
:101C000081E00C94F50D682F9091C00296958FEFAE
:101C1000890F09F484E20C94B60D81E00C94030E54
:101C200061E00C94B60DE0ECF2E08081816080838D
:101C300086950C94100E60E00C94B60DE0ECF2E08A
:101C400080818E7F808360817181828193810E94F7
:101C500099090E94AF0DECEFF1E0828181608283EF
:101C60002FEF80E792E0215080409040E1F700C0E4
:101C700000000C94EC098091C00280FD0C941E0EB3
:101C80000C94130EE0ECF2E080818E7F80830E9442
:101C9000AF0DECEFF1E08281816082832FEF80E76E
:101CA00092E0215080409040E1F700C000000C9489
:101CB000EC091F93CF93DF93EC01162F8F8180FFE8
:101CC0000FC0888180FF0AC08091C002816080932C
:101CD000C002888186950E94B60D02C00E94420E05
:101CE0008F8181FF06C0212F4B816A8189810E94EB
:101CF000AA0A8F8182FF08C08E81882319F00E9472
:101D0000940D02C00E94AF0D8F8183FF03C081E05C
:101D10008093F801DF91CF911F9108958091FB018D
:101D2000811133C00E947121811104C00E941A22C6
:101D30000E94AB090E9495096093C0027093C10292
:101D40008093C2029093C3028091FE0183608093CE
:101D5000FE016E7F61F40E94AB090E9495096093B9
:101D6000C0027093C1028093C2029093C3020E948A
:101D700082090E94AF0D8091C00280FF03C086954A
:101D80000E941B0E81E08093FB010895EF92FF9269
:101D90000F931F93CF93DF938091FD01882309F464
:101DA000B1C08091FC01E091C002E695E81BE09390
:101DB000F701823049F4F0E0EE5FFB4FE491CE2F63
:101DC000D0E006E41AE049C0863049F4F0E0E15082
:101DD000FC4FE491CE2FD0E00AE51AE03EC08930F6
:101DE00051F4E695F0E0E450FC4FE491CE2FD0E0C2
:101DF00005EA1BE032C08F3051F4E695F0E0E75081
:101E0000FC4FE491CE2FD0E000EE1BE026C08531E0
:101E100049F4F0E0EA50FC4FE491CE2FD0E00DE71A
:101E20001CE01BC0883181F0833239F4E4EFF3E029
:101E3000C591D4910AE61AE010C0843251F4C4EF7F
:101E4000D1E00CE31DE009C0C8EED3E003E01DE0E3
:101E500004C0C0EDD7E00EE619E08091F8018823B8
:101E600089F01092F8010E94FC229E012095309585
:101E7000820F931F9093F6018093F5011092FA015F
:101E80001092F9018091F5019091F6010E940823CA
:101E90008C179D07B8F18091F2018823B1F0109260
:101EA000F2018091F0019091F1010E9408238033AA
:101EB000954758F00E94FC229093F1018093F00125
:101EC0008091FE0188608093FE01E090F901F0901E
:101ED000FA01E091F501F091F601CE0FDF1FD093EA
:101EE000F601C093F50185EF91E0F8010995809125
:101EF000F9019091FA01892B29F4EF2819F081E07A
:101F00008093F201DF91CF911F910F91FF90EF909D
:101F10000895882311F0FA0101C0FB010994CF93C1
:101F2000DF93C82FD62F0E94C2098C1740F00E9461
:101F3000C2098D1720F4DF91CF910C94000E8C2FE5
:101F4000DF91CF910C94100E1F93CF93DF93FB0181
:101F50001281111163C0EC010E94C0208272FE0147
:101F6000E25CFC45E431F10508F057C0EA5AFF4F46
:101F70000C94A42F0E943B0E51C04DE05EE060E047
:101F80007EE004C040E05EE06DE07EE00E94890FEC
:101F900045C043E65BE066E57BE0F8CF46E55BE005
:101FA00063E67BE0F3CF41E85BE062E77BE0EECF06
:101FB00042E75BE061E87BE0E9CF4FE95BE060E9A5
:101FC0007BE0E4CF40E95BE06FE97BE0DFCF4BED06
:101FD00059E06AEC79E0DACF4AEC59E06BED79E050
:101FE000D5CF81E017C065E082E010C068E086E0F0
:101FF0000DC06EE089E00AC064E18FE007C067E1D0
:1020000085E104C088E106C062E289E10E948F0F89
:1020100005C083E20E94100E01C011E0812FDF9104
:10202000CF911F9108958091E90281700895809168
:10203000E90286958695869508950E947121811101
:1020400002C00E941A220E94A2218093E902282F36
:1020500026952695269530E02830310524F08770A6
:1020600088638093E9028091E90280FF04C086952D
:102070008695869501C080E00C942C112091E90290
:10208000822F869586958695482F50E047305105DA
:1020900054F48F5F982F990F990F990F822F8770A3
:1020A000892B8093E9028091E90281608093E902A3
:1020B0000E94A6218091E9028695869586950C94CA
:1020C0002C118091E902982F969596959695A1F0FE
:1020D000915E990F990F990F8770892B8093E90270
:1020E000887F91E009F490E08091E90290FB80F90B
:1020F0008093E9020E94A6218091E9028695869547
:1021000086950C942C118091E90280FD13C08160AA
:102110008093E902813019F489E08093E90280918B
:10212000E9020E94A6218091E9028695869586950E
:102130000C942C1108958091E90280FF08C08E7FD5
:102140008093E9020E94A62180E00C942C1108954E
:102150008091E90280FD0C949B100C948310909167
:10216000E902892F8695869586958F5F8F71977086
:10217000883038F4880F880F880F892B8093E90204
:1021800002C09093E9028091E902887F91E009F40E
:1021900090E08091E90290FB80F98093E9020E942F
:1021A000A6218091E9028695869586950C942C113E
:1021B000883008F087E09091E9029770282F220F6D
:1021C000220F220F922B9093E902987F21E009F4CD
:1021D00020E09091E90220FB90F99093E9020C94A1
:1021E0002C110E94D8108091E9020C94A6219C0128
:1021F000FB018281882349F12D3BFCE53F07C9F0B3
:1022000040F42B3BECE53E0769F02C3B3C4561F08C
:1022100008952F3B9CE5390791F070F0203C3C4538
:1022200089F0089587E001C080E00E94F11080E00D
:1022300008950E946110FBCF0E943E10F8CF0E94CB
:10224000A810F5CF0E94AF10F2CF81E00895259A33
:102250002D9808952D980895CF92DF92EF92FF92D6
:10226000CF93C82F883050F4811109C0809180002D
:102270008F77809380000E942A1106C0C7E080916A
:1022800080008068809380002C2F30E0AFEFBFEF9C
:102290000E94AA2F27E030E040E050E00E94822F09
:1022A000C9012C3764E1360728F469E070E00E9428
:1022B0005A2F29C0DA01C9018A50974DAF4FBF4F3D
:1022C0006627782F892F9A2F25EF38E241E050E0DA
:1022D0000E94822F69017A01CA01B9010E943C2F34
:1022E0009B01AC01C701B6010E943C2FBB27A92F5F
:1022F000982F872F009721E0A207B10511F0BC01AC
:1023000002C06FEF7FEF7093890060938800CF91D8
:10231000FF90EF90DF90CF90089508950E942711CD
:1023200082E88093800089E1809381008FEF9FEFA6
:1023300090938700809386000C941D1054B1E42F75
:10234000EF7021E030E001C0220FEA95EAF7352F67
:10235000322B34B942954F70E42FF0E032A1422F76
:102360004095342342A1242B4FB7F894FC01CB01B4
:10237000880F991F680F791F6E0F7F1FE617F707E9
:1023800089F0819198E025B9000000C087FF35B938
:10239000880F000000C000C000C035B900C09A9589
:1023A00091F7ECCF4FBF87EC90E00197F1F700C0B9
:1023B0000000089544E30C949E110F931F93CF9354
:1023C000DF93C62FD42F122FFC0182818823C9F0FE
:1023D000609301020E94FC22909300028093FF010F
:1023E00080E28C0F883008F057C0C77081E001C0D0
:1023F000880FCA95EAF7DF91CF911F910F910C9446
:10240000231880910102681330C08091FF019091E0
:1024100000020E940823883C910538F500E20D0F68
:10242000CD17B9F080E28C0F883040F4C77081E09E
:1024300001C0880FCA95EAF70E942A18083028F5CB
:1024400081E09D2F977001C0880F9A95EAF70E944E
:102450002318812F0E9410180830F0F4D77081E003
:1024600001C0880FDA95EAF70AC080E28C0F883045
:1024700098F4C77081E001C0880FCA95EAF7DF9130
:10248000CF911F910F910C942A18812FDF91CF913A
:102490001F910F910C941018DF91CF911F910F9104
:1024A00008959C01CB01233F4CE53407F9F078F403
:1024B000283DFCE53F07B9F0293D4CE5340711F113
:1024C000273D3C4531F526E241EE61EE1EC0253F39
:1024D000FCE53F0799F070F0263F3C45D1F427E238
:1024E00045EE66EE12C027E245EE0EC026E241EE52
:1024F00060EE0BC027E245EE64EE07C026E241EE37
:1025000062EE03C028E241E065EE0E94DD1180E04A
:102510000895FC018281882319F010920102089528
:1025200081E00895CF93DF93EC01FB018281882342
:1025300009F41FC1C230FCE5DF0708F41BC1C63136
:102540009CE5D90738F09E012A5F3C4529303105CA
:1025500008F010C10E9484219093F1028093F00250
:10256000C031ECE5DE0709F4C3C008F041C0C83053
:102570008CE5D80709F49AC0F0F4C430ECE5DE0726
:1025800009F487C068F4C2308CE5D80709F477C035
:10259000C330DC4509F0E3C08091F002826076C070
:1025A000C630ECE5DE0709F46EC008F07BC0809110
:1025B000F00288606BC0CC308CE5D80709F485C088
:1025C00068F4CA30ECE5DE0709F474C008F079C09D
:1025D0000E94DB1A8091F002806858C0CE308CE5F2
:1025E000D80709F476C008F07FC08091F0028BC054
:1025F000CB3FECE5DE0709F44FC018F5C3318CE59D
:10260000D80709F47DC078F4C131ECE5DE0709F4A0
:1026100073C0C231DC4509F0A2C00E94DB1A809170
:10262000F0028F7733C0C5318CE5D80709F472C04A
:1026300008F486C0CA3FDC4509F091C08091F102E0
:102640003EC0CF3FFCE5DF0709F45FC058F4CD3F43
:102650009CE5D90709F444C008F43FC08091F10219
:1026600082602DC0C130FDE5DF0709F475C008F4B4
:102670005DC0C230DD4509F072C080E06EC080915F
:10268000F002816003C08091F00280618093F002CB
:1026900066C08091F00211C08091F1028260809347
:1026A000F1025DC08091F0028062F0CF8091F00273
:1026B0008064ECCF8091F00288608460E7CF816015
:1026C000EECF8091F0028E7FE1CF8091F0028D7F7E
:1026D000DDCF8091F002877FD9CF8091F10218C0C1
:1026E0008091F1028D7FDBCF8091F0028F7ECECF83
:1026F0008091F0028F7DCACF8091F0028F7BC6CF90
:102700008091F002877F8B7FC1CF8091F1028D7F16
:102710008E7FC5CF8091F00282FB222720F991E0C5
:10272000922790FB82F990FB83F9B0CF8091F10260
:10273000982F909591708E7F892B90FB81F9AFCF68
:102740000E94DB1A8091F00287FB222720F991E09A
:10275000922790FB87F99ACF81E00E941C228091FA
:10276000F0029091F1020E9495210E94DB1A80E014
:1027700001C081E0DF91CF910895CF93DF9386313F
:102780009C4541F5EB010E94C020982F8A81209141
:10279000210130912201882379F09A7A81E009F4AD
:1027A00080E080930202911102C069E201C065E3FA
:1027B000C9010E9463220AC080910202811102C0F5
:1027C00069E201C065E3C9010E9465220E940E21F1
:1027D00080E001C081E0DF91CF9108958EE1489BB8
:1027E00002C08150E1F7489BFECF0895589880E2DF
:1027F0008A95F1F7589A0895FC012AE02A95F1F795
:1028000090E020E080E031E0261779F040E14A9541
:10281000F1F7880F489B02C08160932700C0000039
:1028200040E14A95F1F72F5FEFCF20E12A95F1F7CC
:1028300029B100C0000030E13A95F1F721709227EC
:102840002081920F90830895EF92FF920F931F9330
:10285000CF93DF931F92CDB7DEB719828C017C0135
:10286000E60EF11C0E151F0559F00E94EE1368E0EC
:10287000CE0101960E94FC13F80181938F01F2CFE3
:1028800081E09981911180E00F90DF91CF911F91AC
:102890000F91FF90EF9008959093050280930402AA
:1028A00060930302509A589A08959093050280937A
:1028B0000402609303025098589AE89AE9E6F0E01F
:1028C00080818C7F80830895615091E001C0990FD1
:1028D0006A95EAF720E031E0992361F0492F482317
:1028E00019F0589A232701C0589840E24A95F1F709
:1028F0009695F2CF222311F0589A01C0589880E2A1
:102900008A95F1F758980895FF920F931F93CF93EC
:10291000DF93EC018C01060F111DC017D10741F0A8
:10292000F9900E94F61368E08F2D0E946414F5CF91
:10293000DF91CF911F910F91FF9008951F920F92F9
:102940000FB60F9211240F931F932F933F934F9322
:102950005F936F937F938F939F93AF93BF93EF9307
:10296000FF93CF93DF931F92CDB7DEB719820E94FA
:10297000EE1367E0CE0101960E94FC13382F3695C6
:1029800036953695932F96959570232F2570920F37
:10299000292F2370969596958770920F891348C0BA
:1029A0008981811145C080910302831708F440C0DA
:1029B00080E18A95F1F7589A509AA2E0AA95F1F72A
:1029C00000C00091040210910502B8E03B9F000D89
:1029D000111D11245898F8016581662321F0868124
:1029E00097810E9484140E94F613F0E1FA95F1F7A2
:1029F00058985098589A80E18A95F1F7D801129624
:102A00006C911297662369F013968D919C9114979F
:102A10000E942414D801ED91FC91811105C082E03F
:102A200004C0D801ED91FC9188E080830E94EE13F0
:102A30000F90DF91CF91FF91EF91BF91AF919F9157
:102A40008F917F916F915F914F913F912F911F9146
:102A50000F910F900FBE0F901F9018950F931F931B
:102A6000CF93DF932091030230E0281739070CF44D
:102A700071C09C0193E0220F331F9A95E1F7C0913A
:102A80000402D0910502C20FD31FF894509A5898AF
:102A900045E04A95F1F70000982F9695957085705E
:102AA000890F982F937086958695890F8901082B39
:102AB0000E94F61384E08A95F1F700C067E0802F4A
:102AC0000E94641440E14A95F1F75098589A489949
:102AD00002C000C0FCCF87E090E0489B0EC0019789
:102AE00051F4509A589AE881F98181E08083789472
:102AF00081E090E031C000C0F0CF6D81662381F0AD
:102B00008E819F810E94241481110AC0509A589A84
:102B1000E881F98182E08083789482E090E01CC0B3
:102B20000E94EE1380E28A95F1F75898509A40E19E
:102B30004A95F1F76A81662321F08B819C810E947E
:102B400084140E94F613E881F9811082789480E061
:102B500090E002C084E090E0DF91CF911F910F914F
:102B6000089590930B0280930A020895E0910A025F
:102B7000F0910B02309721F00190F081E02D099443
:102B800080E00895E0910A02F0910B02309721F065
:102B90000280F381E02D09940895E0910A02F091FA
:102BA0000B02309739F022E0DC012C930480F58190
:102BB000E02D099408952091080230910902281708
:102BC000390771F09093090280930802E0910A029C
:102BD000F0910B02309721F00680F781E02D0994E7
:102BE000089520910602309107022817390771F0E5
:102BF0009093070280930602E0910A02F0910B0283
:102C0000309721F00084F185E02D0994089585B76F
:102C1000806885BF85B7806885BF089508950C9446
:102C20000E160C940F160C940E160C940E160E9491
:102C300007160E9413160C9411160E94F3220E948C
:102C4000DC060E947C230E941D100E948E0E0C94B4
:102C50001516AF92BF92CF92DF92EF92FF920F9331
:102C60001F93CF93DF93CDB7DEB72A970FB6F894B3
:102C7000DEBF0FBECDBF0E946D070E9440088111CC
:102C800011C08FEF89838A831B820E94FC2281609E
:102C9000782F9D838C8349815A816B818D810E941D
:102CA000C51640C08DE0A82E82E0B82E00E010E0EE
:102CB000C02E802F0E94C906E82EF501D1905F0139
:102CC000D82631F40F5F1F4F0A30110589F7D9CF8D
:102CD00080918D0281FD0E94CF0680E0FF24F39455
:102CE0009D2D9F21D1F08E83CF82EF2081E009F4CA
:102CF00080E088870E94FC228160782F9A878987EC
:102D00004E815F8168858A850E94C516F801E35F60
:102D1000FD4F8081F826F08205C08F5FFF0C863062
:102D2000F9F6D0CF0E94C60E0E948D110E940E258A
:102D30000E94B61590910C028917B1F00E94B61549
:102D400080930C022A960FB6F894DEBF0FBECDBF5B
:102D5000DF91CF911F910F91FF90EF90DF90CF9077
:102D6000BF90AF900C945A042A960FB6F894DEBF29
:102D70000FBECDBFDF91CF911F910F91FF90EF90CC
:102D8000DF90CF90BF90AF900895CF93DF93CDB7F2
:102D9000DEB72B970FB6F894DEBF0FBECDBF4F83C3
:102DA000588769877A878B87DE01119686E0FD0157
:102DB00011928A95E9F785E0FE01379601900D9210
:102DC0008A95E1F749815A816B817C818D819E8151
:102DD0000E94AB1D2B960FB6F894DEBF0FBECDBF81
:102DE000DF91CF910895FC01808191810E94812023
:102DF0000895CF93882309F4A9C0C82F8238C1F45D
:102E00000E94B61581FDA2C069E3809121019091D5
:102E100022010E9463220E940E212FEF81EE94E096
:102E2000215080409040E1F700C0000069E319C0E4
:102E3000833801F50E94B61580FD88C063E5809156
:102E40002101909122010E9463220E940E212FEF06
:102E500081EE94E0215080409040E1F700C00000F6
:102E600063E580912101909122010E946522CF911A
:102E70000C940E218438C1F40E94B61582FD66C000
:102E800067E480912101909122010E9463220E94B7
:102E90000E212FEF81EE94E0215080409040E1F729
:102EA00000C0000067E4DDCF8CEF8C0F813AF8F4AE
:102EB0008C2F0E94C227811149C06C2F8091210163
:102EC000909122010E942D22882349F06C2F80913D
:102ED0002101909122010E9465220E940E216C2FF7
:102EE00080912101909122010E946322C0CF80E253
:102EF0008C0F883048F4C77081E001C0880FCA95F4
:102F0000EAF70E94C320B3CFEBE5EC0FE33040F4C7
:102F1000F0E0E653FE4F808190E0CF910C94DB15FA
:102F2000E8E5EC0FE73150F4F0E0EE0FFF1FE45658
:102F3000FE4F80819181CF910C94F115C03F30F00C
:102F40008C2F0E941624CF910C940325CF910895C5
:102F5000882309F464C0823879F40E94B61581FF91
:102F60005EC069E380912101909122010E94632259
:102F70000E940E2169E310C08338B1F40E94B61597
:102F800080FF4DC063E580912101909122010E9454
:102F900063220E940E2163E580912101909122011C
:102FA0000E9465220C940E21843879F40E94B61593
:102FB00082FF35C067E480912101909122010E9437
:102FC00063220E940E2167E4E7CF9CEF980F913AAD
:102FD00010F4682FE1CF90E2980F983050F487708A
:102FE00091E001C0990F8A95EAF7892F0E94C920C4
:102FF000D9CF9BE5980F933020F480E090E00C94BB
:10300000DB1598E5980F973120F480E090E00C9460
:10301000F115803F20F00E947E240C940325089532
:10302000CF93C82F0E94F916C93349F42FEF87EECA
:1030300093E0215080409040E1F700C000008C2FC9
:10304000CF910C94A817882321F00E94C3200C94E0
:103050000E210895882321F00E94C9200C940E218E
:103060000895CF92DF92EF92FF920F931F93CF9329
:10307000DF937C01062FC72FFC01158112951F706D
:10308000D281D1110E94E0200E94B920882379F0DA
:10309000DD2369F080E2800F883048F082E00E94F2
:1030A00058210E94B92091E0D82ED92601C0D12CF8
:1030B000CC2EC2948FE0C8228C2D90E0FC01E65902
:1030C000FF4F0C94A42F8C2F807FCF70882311F09A
:1030D000C295C07FDD2399F0CC2309F4C4C180E2FE
:1030E000800F883010F0011104C08C2F0E94C32083
:1030F00003C08C2F0E94D3200E940E21B4C1802FC8
:103100000E94A817CC2309F4D3C180E2800F883035
:1031100010F0011104C08C2F0E94C92003C08C2F15
:103120000E94D9200E940E21C3C18C2F807FCF70B6
:10313000803211F0C295C07F002319F00130C9F030
:1031400022C0DD2371F0112341F0113031F40E94CF
:10315000F3208C2B0E94FB20ABC10E94F3208C2B10
:103160001DC0112319F0113009F4A2C10E940421DD
:1031700025C0DD2321F0163008F09AC10EC01530AD
:1031800008F096C11BC0DD2361F0112331F0F70177
:10319000858180FF68C18F7085838C2F0E942318E2
:1031A00087C1112359F0093309F06EC1FFEF27EEF3
:1031B00083E0F15020408040E1F764C18C2F0E94F1
:1031C0002A1876C18C2F86958695837019F08130E8
:1031D00061F06EC1DD2321F0802F9C2F937002C01F
:1031E00080E090E00E94DB156BC1DD2321F0802F91
:1031F0009C2F937002C080E090E00E94F11560C1A6
:10320000DD23F9F0053F51F0063F71F0043FA9F4CA
:103210008091EA029091EB0281600BC08091EA02FA
:103220009091EB02826005C08091EA029091EB02DE
:1032300084609093EB028093EA02802F0E94162410
:103240001EC0053F51F0063F71F0043FA9F4809184
:10325000EA029091EB028E7F0BC08091EA0290917E
:10326000EB028D7F05C08091EA029091EB028B7F8B
:103270009093EB028093EA02802F0E947E240E94AA
:1032800003251EC18C2F837009F045C0D11114C1D4
:10329000402F429546954770440F440F602F6F7042
:1032A000862F90E0A0E0B0E0042E04C0880F991FA4
:1032B000AA1FBB1F0A94D2F704FF10C00FE010E052
:1032C00020E030E004C0000F111F221F331F4A9579
:1032D000D2F7009510952095309503C000E010E0DE
:1032E0009801C695C695C370BC01CD01602B712BAA
:1032F000822B932BC23049F058F4C13019F00E9450
:10330000FC1EDAC00E94EA1ED7C00E940E1FD4C065
:103310000E94E81ED1C0DD2319F08C2F817001C0FE
:103320008695882309F4C8C0402F4295469547707A
:10333000440F440F602F6F70862F90E0A0E0B0E044
:10334000042E04C0880F991FAA1FBB1F0A94D2F72E
:1033500004FF10C00FE010E020E030E004C0000FD8
:10336000111F221F331F4A95D2F700951095209503
:10337000309503C000E010E09801C695C695C37073
:10338000BC01CD01602B712B822B932BC23049F0F5
:1033900058F4C13019F00E94C11F8EC00E94AF1FA7
:1033A0008BC00E94D31F88C00E94221F85C0CF708F
:1033B000DD2339F08C2F0E94481F802F0E94231894
:1033C0007BC0802F0E942A188C2F0E94691F74C016
:1033D000023F01F128F4003F41F0013FA1F03FC05E
:1033E000033FF9F0043F39F13AC0DD2341F01530D5
:1033F00008F05EC08C2F8F710E948E1F59C016304E
:1034000008F056C0F7CFDD2339F08C2F8F710E9462
:10341000481F4EC0DD23C9F38C2F8F710E94691F96
:1034200047C0DD2329F08C2F8F710E94331F40C0CD
:103430000E942E1F3DC0DD2349F0CF718C2F0E94CA
:10344000481F63E08C2F0E94432132C081E00E941C
:103450005821123068F182E00E94582129C0DD23F2
:1034600031F0112391F2802F0E94F91621C011230F
:1034700099F2093349F49FEFE7EEF3E09150E04011
:10348000F040E1F700C00000802F0E94A81710C094
:103490004C2F4F70602FC7010E94BB040E94591E21
:1034A0000FC04C2F4F70602FC7010E94BE0408C090
:1034B00088EF8C0D843020F40E94B6150E945A04C7
:1034C000DD20C9F00E94B52080FD15C0F7011282F1
:1034D0000E94AF200E94481FC7010E949C1A0E94B0
:1034E000AF20DF91CF911F910F91FF90EF90DF9070
:1034F000CF900C94691FDF91CF911F910F91FF9096
:10350000EF90DF90CF9008950F931F93CF93DF93A9
:10351000EC01688179818A810E948C208C010E9453
:10352000E51F0E94D61EB801CE010E943118DF911E
:10353000CF911F910F910895CF93DF93FC0190815C
:10354000818123813481232B31F08F3F31F481E05D
:103550009F3F19F403C081E001C080E080FD0EC0F0
:10356000EF01CF010E947304882341F0CE010E9435
:10357000841ACE01DF91CF910C943D04DF91CF915D
:1035800008950E94E0200E94F0200E940E210E94D7
:103590002D260E94032580E090E00E94DB1580E04C
:1035A00090E00C94F11580912101909122010E94EC
:1035B00067220C94C11A0E94D0200C94D31AE92FD0
:1035C000E295EF704E2F50E0FA013297EE30F105A0
:1035D000B0F4E658FF4F0C94A42F803F91F018F4FC
:1035E000883E68F40EC0843F51F40BC0883E48F01A
:1035F000813F29F406C093FB882780F9089580E075
:10360000089581E008950E9481200E94DF1A0895A4
:10361000CF93DF9300D000D01F92CDB7DEB70F90CD
:103620000F900F900F900F90DF91CF910895CF934F
:10363000DF9300D000D000D0CDB7DEB726960FB60E
:10364000F894DEBF0FBECDBFDF91CF9108951F93D9
:10365000CF93DF93C091180216E080911902C8172A
:1036600099F0D0E01C9FF0011D9FF00D1124E65E43
:10367000FD4F4081518162817381848195810E94D7
:10368000171B2196C770E9CFDF91CF911F91089545
:1036900040914A0250914B0260914C0270914D0250
:1036A00080914E0290914F020C94171BCF93809102
:1036B0004F0282958F7009F05FC080914C02882381
:1036C00009F45AC080911802B091190270914A020F
:1036D000A0914B0240914D0250914E0291E07F3FEC
:1036E00009F090E0692FC6E08B1709F445C0411539
:1036F000510521F0AF3F21F020E003C021E001C0DF
:10370000262F90E020FD35C0C89FF001C99FF00D25
:103710001124E65EFD4F21812A132BC0208127133F
:1037200028C02281211125C0238134812417350727
:1037300010F421503109241B350B283C3105C8F405
:1037400020914F022F70206120934F0226E0289F86
:10375000F001299FF00D1124E15EFD4F80818F70F3
:10376000806180838AE492E00E949C1ACF910C943D
:10377000271B01968770B8CFCF910895AF92BF9263
:10378000CF92DF92EF92FF920F931F93CF93DF932D
:10379000CDB7DEB761970FB6F894DEBF0FBECDBFD1
:1037A0008C0185E0F801DE011D9601900D928A954D
:1037B000E1F7D8014C9111965C9111971296EC901B
:1037C00030914A0260914B0280914D0290914E02DD
:1037D000009731F06F3F31F421E03F3F19F403C00F
:1037E00021E001C020E0B22FB170BB2E20FD60C1EE
:1037F000F801C380D480A0904C02AA2009F4EEC046
:1038000020914F02C816D90628F0D601A81BB90B83
:10381000CD0104C0809590958C0D9D1DFF24F394DF
:10382000883C910580F0F12C207F09F09CC07C2D14
:10383000D98AC88A6E2D89890E94081B8AE492E081
:103840000E949C1A2DC1822F807F09F054C056130C
:1038500014C0431312C0FE2CE1100FC02F70206162
:1038600020934F020E94481B8AE492E00E949C1A17
:1038700080914F02F80185835CC1CD2831F05F3F14
:1038800031F481E04F3F19F403C081E001C080E0D2
:1038900080FD03C081E08E2502C080E090E0F82F1B
:1038A000F170FF2E80FF1CC0809118022091190238
:1038B00036E0821709F41AC190E0389FF001399F71
:1038C000F00D1124E65EFD4F6181561306C0608144
:1038D000461303C06281E61203C001968770E9CFE8
:1038E000FE2CEE2009F425C180914F028160809367
:1038F0004F02F12C1EC1561309C0431307C0E1103B
:1039000005C080914F02F8018583A4C04D875E8772
:103910008D859E850E94031B882379F1EE2069F135
:1039200020914F02822F82958F7090E0029774F061
:1039300080914A0290914B0298878F831986DB868B
:10394000CA862C87CE0107960E949C1A86E0F80151
:10395000AAE4B2E001900D928A95E1F70E94561B0D
:103960000E94481B0DC0561771F04D875E878D85EC
:103970009E850E94031B81111AC0C8010E949C1AD7
:10398000FF24F394D6C04313F0CFE110EECF809123
:103990004F02F8018583C8010E949C1A86E0EAE480
:1039A000F2E0DF011D928A95E9F7FA2CC2C0EE2001
:1039B00021F320914F02822F82958F7090E0029721
:1039C0002CF280914A0290914B029A8389831B8248
:1039D000DD82CC822E83CE010196B6CFC816D906E1
:1039E00028F0F601E81BF90BCF0104C080959095F3
:1039F0008C0D9D1D883C910548F0F12C7C2DD98AB9
:103A0000C88A6E2D89890E94081B4AC0FE2CEE20B0
:103A100009F4B3CF561333C0431331C020914F0282
:103A200020FD24C0822F82958F70482F50E04115D1
:103A30005105E1F0D80115962C9315974F3051059B
:103A400049F08F5F982F9295907F822F8F70892BEE
:103A500015968C93C8010E949C1A86E0F801AAE48E
:103A6000B2E001900D928A95E1F73DC086E0F80141
:103A7000AAE4B2E001900D928A95E1F75AC04D8711
:103A80005E878D859E850E94031B81115FCF80918B
:103A90004F02816080934F02C8010E949C1A49C066
:103AA000EAE4F2E086E0DF011D928A95E9F71BC0A7
:103AB000EE2009F462CF4D875E878D859E850E943A
:103AC000031BF82E882309F458CF86E0F801AAE4F6
:103AD000B2E001900D928A95E1F78AE492E00E94AB
:103AE000F3160E94561B0E94481B23C04D875E8719
:103AF0008D859E850E948120292F22952F7022304E
:103B000028F49F7039F0811105C00BC0243028F4CF
:103B10009F7049F4805E883020F0C8010E949C1A92
:103B2000BF2CFB2C06C0D80115969C91907F91F775
:103B3000F8CF8F2D61960FB6F894DEBF0FBECDBFC4
:103B4000DF91CF911F910F91FF90EF90DF90CF9079
:103B5000BF90AF9008951F93CF93DF93CDB7DEB79B
:103B60002C970FB6F894DEBF0FBECDBF4F8358879A
:103B700069877A878B879C87CE0107960E94BE1B38
:103B80008823D1F09F8188852A853B85232B31F0BE
:103B90008F3F31F481E09F3F19F403C081E001C001
:103BA00080E080FD47C04F81588569857A858B8587
:103BB0009C850E94171B3EC086E0FE013796DE0101
:103BC000119601900D928A95E1F7FF81E8856A854B
:103BD0007B856115710531F0EF3F31F481E0FF3FE6
:103BE00019F403C081E001C080E080FD23C0209172
:103BF000190230E0C9010196877099274091180297
:103C000050E084179507F1F1F983EA837D836C8393
:103C100096E0929FD001939FB00D1124A65EBD4FF8
:103C2000FE01319601900D929A95E1F78093190269
:103C30000E94271B16E080911802909119028917A3
:103C400071F1189FC0011124865E9D4F0E94BE1B1A
:103C5000882329F1E09118021E9FF0011124E65EED
:103C6000FD4F4081518162817381848195810E94E1
:103C7000171B8091180290E0019687709927809316
:103C80001802D9CF0E94DB1A109219021092180262
:103C9000EAE4F2E086E0DF011D928A95E9F72C96CE
:103CA0000FB6F894DEBF0FBECDBFDF91CF911F914D
:103CB0000895EF92FF920F931F93CF93DF938C01A0
:103CC000892B09F46CC0F12CEE24E394E8012196D1
:103CD000F8018491843740F4843008F051C0813079
:103CE00081F0823019F15BC0853709F444C0A8F136
:103CF0009CE7980F903708F052C08F770E94A81762
:103D000041C00E5F1F4FFE01849190E2980F9830E2
:103D100050F48770FE2D01C0FF0F8A95EAF78F2FB0
:103D20000E94E32014C00E94F9162DC00E5F1F4FA1
:103D3000FE01849190E2980F983060F48770FE2D18
:103D400001C0FF0F8A95EAF78F2F0E94E9200E9499
:103D50000E2119C00E94A81716C00E5F1F4FFE014A
:103D6000C491CC2381F08FE99FE00197F1F700C067
:103D70000000C150F6CF0E5F1F4FFE01F49003C04C
:103D80000E94F9168E018F2D882309F49FCFEFE949
:103D9000FFE03197F1F700C000008150F5CFDF91CF
:103DA000CF911F910F91FF90EF900895089508957E
:103DB0000C94D71E0C94D81E0E94DA1E60937C02CD
:103DC00070937D0280937E0290937F020C94C11ABF
:103DD0000C94DC1E0F931F9300917C0210917D02C6
:103DE00020917E0230917F02602B712B822B932BCE
:103DF0001F910F910C94DC1E0F931F9300917C0276
:103E000010917D0220917E0230917F026023712308
:103E1000822393231F910F910C94DC1E0F931F9309
:103E200000917C0210917D0220917E0230917F02F0
:103E300060277127822793271F910F910C94DC1E16
:103E40000C94D71E0E94201F609378027093790211
:103E500080937A0290937B020C94C11A60E070E028
:103E6000CB010C94221F0F931F9341E050E060E0C0
:103E700070E08A019B0104C0000F111F221F331F35
:103E80008A95D2F7C901B8011F910F910C94221F96
:103E90000F931F9341E050E060E070E004C0440FD6
:103EA000551F661F771F8A95D2F7809178029091EF
:103EB0007902A0917A02B0917B028A019B01082BC2
:103EC000192B2A2B3B2BC901B8011F910F910C9480
:103ED000221F0F931F9341E050E060E070E004C0A8
:103EE000440F551F661F771F8A95D2F7409550954E
:103EF000609570958091780290917902A0917A02F4
:103F0000B0917B028A019B01082319232A233B23BA
:103F1000C901B8011F910F910C94221F0F931F9399
:103F200041E050E060E070E004C0440F551F661FA0
:103F3000771F8A95D2F78091780290917902A091AB
:103F40007A02B0917B028A019B01082719272A2750
:103F50003B27C901B8011F910F910C94221F0F93A9
:103F60001F93009178021091790220917A0230918A
:103F70007B02602B712B822B932B1F910F910C9442
:103F8000221F0F931F9300917802109179022091C4
:103F90007A0230917B0260237123822393231F9145
:103FA0000F910C94221F0F931F9300917802109190
:103FB000790220917A0230917B0260277127822753
:103FC00093271F910F910C94221F0895292F220FE0
:103FD000920F990F890FE82FE695E695E695877081
:103FE00051E001C0550F8A95EAF785E0E89FF0019E
:103FF0001124E05BFD4F20E030E070E04081CB0118
:10400000022E02C0969587950A94E2F781708195F9
:1040100084278523842781932F5F3F4F25303105E7
:1040200069F70895292F220F920F990F890F682F92
:10403000669566956695982F977085E0689FB001A4
:10404000112440E050E080E0FB01E40FF51FE05B4D
:10405000FD4F208130E0092E02C0369527950A9445
:10406000E2F721703327042E01C0220F0A94EAF7E9
:10407000822B4F5F5F4F4530510531F70895BF9256
:10408000CF92DF92EF92FF920F931F93CF93DF9324
:104090008C01C0907802D0907902E0907A02F09082
:1040A0007B0280917C0290917D02A0917E02B09172
:1040B0007F02C82AD92AEA2AFB2ACFE1D0E0D70119
:1040C000C6010C2E04C0B695A795979587950A94BE
:1040D000D2F780FD04C0219790F7B12C07C0BC2E09
:1040E000B8018C2F0E94DA040197A9F38B2DDF9180
:1040F000CF911F910F91FF90EF90DF90CF90BF90E5
:104100000895CF93DF93EC010E943F20BE010E94EF
:10411000DA04DF91CF9108951F93CF93DF93EB01E2
:1041200090911702992321F0CB010E94812013C0A6
:10413000882349F0CB010E943F20182F682FCE0121
:104140000E94E61F04C0CB010E941220182FBE015E
:10415000812F0E94DA04DF91CF911F910895809101
:104160008002859585958595089580918002877058
:10417000089590918002977081E009F480E008959D
:1041800080918C02089590918C02892B80938C02EF
:104190000895809590918C02892380938C020895D4
:1041A00010928C02089590918B02892B80938B0240
:1041B0000895809590918B02892380938B020895B6
:1041C00010928B02089590918A02892B80938A0223
:1041D0000895809590918A02892380938A02089598
:1041E00010928A02089580918102089508950C9496
:1041F000F6200C94F72090918102981721F080937B
:1042000081020C94F920089580918102882329F07D
:104210001092810280E00C94F9200895E091210130
:10422000F091220180918C028083E0912101F09134
:104230002201908180918B02892B8083E091210162
:10424000F0912201908180918A02892B8083809154
:104250008102882381F0E0912101F0912201908177
:10426000892B808380912101909122010E9421223B
:1042700081110E94042180912101909122010C94CE
:10428000C2150C94F62098E0899F90011124262BEA
:10429000209380020E94481F809180028595859519
:1042A00085950C9441211092800280E00C9441216C
:1042B000209180028095822380938002982F9770AE
:1042C00079F430E0482F082E000C550B24173507E1
:1042D00039F08595859585950E94691F0C94532129
:1042E000089580E090E00E94EB2F21E08C3E9E4FED
:1042F00009F020E0822F089582E090E00C94DD2FF9
:1043000083E090E00C94DD2FCF9384E090E00E9456
:10431000DD2FC82F81E290E00E94DD2F2C2F30E0AE
:10432000A901582BCA01CF910895CF93C92F682FA7
:1043300084E090E00E94F12F6C2F81E290E0CF9119
:104340000C94F12F86E090E00C94DD2F682F86E02E
:1043500090E00C94F12FAB01BC018FE090E00C9445
:104360000330AB01BC0183E190E00C94033060E0CA
:1043700070E0CB010C94B12160E070E0CB010E94B1
:10438000AB210C94B7216CEE7EEF80E090E00E94B0
:104390000F3060E082E090E00E94F12F60E083E067
:1043A00090E00E94F12F10927C0210927D021092F8
:1043B0007E0210927F0260E084E090E00E94F12F84
:1043C00060E081E290E00E94F12F60E085E090E003
:1043D0000E94F12F60E086E090E00E94F12F6FEFE5
:1043E00087E090E00E94F12F40E050E0BA0188E0C1
:1043F00090E00E94033060E08DE090E00E94F12F99
:1044000040E050E0BA0188E190E00E94033060E0B3
:1044100087E190E00E94F12F40E050E0BA018CE18A
:1044200090E00E94033060E080E290E00E94F12F73
:104430000C94BC210C94C321682F8EE090E00C9466
:10444000F12FFC01329697E080E0915029F0219104
:104450002223D9F38F5FF9CF0895662349F0FC0139
:10446000329608962191621729F0E817F907D1F7DB
:1044700080E0089581E008959C01FC0132969FEF51
:1044800080E04191461789F09F3F19F4411101C026
:10449000982F8F5F8630A9F79F3F39F0F901E90F18
:1044A000F11D97FDFA956283089508959C012A5F96
:1044B0003F4FFC014281461301C0128201968217D0
:1044C0009307B9F708950C943C220C945622029657
:1044D00026E0FC0111922A95E9F7089508950C94BD
:1044E0006E220C946E22CF930E9471220E946D075F
:1044F0000E946F22C0E08C2F0E94C906811104C067
:10450000CF5FCA30C1F701C081E0CF9108950C940C
:104510006E220C9487220E9489228091F6028430B8
:1045200061F110928E0220E488E190E00FB6F894D9
:10453000A895809360000FBE2093600080E00E94E9
:104540002C1180E00E945A040E94892283B7817F47
:10455000846083BF83B7816083BF7894889583B775
:104560008E7F83BF0FB6F894A89580916000886114
:1045700080936000109260000FBE08950C946E222C
:104580000E94DB1A0E941D100E94B6150E945A0458
:104590000C94BE221F920F920FB60F9211248F938C
:1045A0009F93AF93BF9380918E02811113C080912E
:1045B000EC029091ED02A091EE02B091EF024196D3
:1045C000A11DB11D8093EC029093ED02A093EE0229
:1045D000B093EF02BF91AF919F918F910F900FBE5B
:1045E0000F901F90189582E084BD93E095BD9AEFDF
:1045F00097BD80936E0008952FB7F8948091EC02D8
:104600009091ED02A091EE02B091EF022FBF0895BC
:10461000CF92DF92EF92FF920F931F932FB7F894F0
:104620004091EC025091ED026091EE027091EF0228
:104630002FBF6A017B01EE24FF248C0120E030E0D3
:10464000C016D106E206F30610F4415051099A0152
:10465000281B390BC9011F910F91FF90EF90DF903C
:10466000CF90089578941F920F920FB60F92112455
:104670008F939F93AF93BF938091EC029091ED0243
:10468000A091EE02B091EF020196A11DB11D8093A1
:10469000EC029093ED02A093EE02B093EF02BF9173
:1046A000AF919F918F910F900FBE0F901F90189513
:1046B00081E08093E00080E28093D8001092C900EE
:1046C0008FE19EE40197F1F700C0000087E090EBD6
:1046D000DC018093FF0290930003A0930103B09349
:1046E00002039CE088E10FB6F894A89580936000DF
:1046F0000FBE90936000FFCF0E947121811102C014
:104700000E941A220E947C2180938D020E948421A3
:104710009093F1028093F0020E948021682F70E054
:1047200080E090E00C94E81E8091960280FF0BC020
:104730006091280185E0689FB00111247595679507
:10474000759567952BC081FF09C06091280185E0B0
:10475000689FB00111247595679520C082FF07C03E
:104760006091280185E0689FB001112417C09091E5
:1047700095029923D1F060912701961788F720912F
:10478000280185E0289F90011124929FA001939F0A
:10479000500D112470E0CA010E946E2F603871051F
:1047A00040F46115710519F406C065E070E0862FCC
:1047B00008958FE7089581E008958091960280FF23
:1047C00008C06091240170E07595679575956795AF
:1047D00021C081FF06C06091240170E07595679546
:1047E00019C082FF04C06091240170E010C0909154
:1047F0009502992399F0609123019617A0F7809173
:104800002401899FC001112470E00E946E2F60383E
:10481000710540F46115710519F406C061E070E09E
:10482000862F08958FE7089581E00895803F21F451
:104830000E949423819504C0813F29F40E9494230F
:1048400080939A020895823F21F40E9494238195D7
:1048500004C0833F29F40E94942380939902089511
:10486000893F19F40E94DD2305C08A3F31F40E947C
:10487000DD23819580939B0208958B3F21F40E9454
:10488000DD23819504C08C3F29F40E94DD238093B1
:104890009C020895843F21F480919802816017C0A2
:1048A000853F21F480919802826011C0863F21F4F7
:1048B0008091980284600BC0873F21F48091980218
:1048C000886005C0883F31F48091980280618093B0
:1048D000980208958D3F21F48091960281600BC06B
:1048E0008E3F21F480919602826005C08F3F29F4AB
:1048F000809196028460809396020895803F39F4F7
:1049000080919A0287FF6CC010929A0269C0813F21
:1049100029F480919A021816BCF362C09091990212
:10492000823F29F497FF5CC01092990259C0833FDF
:1049300019F41916CCF354C0893F41F480919B02BD
:1049400018160CF04DC010929B024AC08A3F29F401
:1049500080919B0287FF44C0F6CF8B3F39F4809152
:104960009C0287FF3DC010929C023AC08C3F29F404
:1049700080919C021816BCF333C0843F21F48091CF
:1049800098028E7F17C0853F21F4809198028D7F19
:1049900011C0863F21F4809198028B7F0BC0873F26
:1049A00021F480919802877F05C0883F31F480917F
:1049B00098028F7E8093980213C08D3F21F48091DE
:1049C00096028E7F0BC08E3F21F4809196028D7FE0
:1049D00005C08F3F29F4809196028B7F80939602C9
:1049E0008091990281110EC080919A0281110AC0B2
:1049F00080919B02811106C080919C02811102C0AE
:104A000010929502089587E992E00E94CD150E94C8
:104A1000FC2290939402809393020895CF93DF93A6
:104A200000D000D000D0CDB7DEB786E0E7E9F2E0F5
:104A3000DE01119601900D928A95E1F7809199021D
:104A4000811105C080919A02882309F47AC080916F
:104A50009102909192020E940823AC0190919502DC
:104A6000992339F02091290130E02417350758F0B7
:104A700068C020912A018AE0289F90011124241700
:104A8000350718F05EC09F3F19F09F5F9093950225
:104A900010929B0210929C0280919902181624F4A5
:104AA0000E949423809399028091990287FF05C008
:104AB0000E94942381958093990280919A021816FE
:104AC00024F40E94942380939A0280919A0287FF93
:104AD00005C00E949423819580939A023091990297
:104AE0003323E1F020919A022223C1F045EB3403F5
:104AF000C0011124992319F09093990203C081E019
:104B00008093990235EB2303C0011124992319F0F6
:104B100090939A0203C081E080939A020E94032539
:104B200080919302909194029093920280939102CB
:104B300086E0FE013196A7E9B2E001900D928A95D8
:104B4000E1F780919B02811105C080919C0288232E
:104B500009F47AC080918F02909190020E940823FC
:104B6000AC0190919502992339F02091250130E014
:104B70002417350758F068C0209126018AE0289F45
:104B8000900111242417350718F05EC09F3F19F0DB
:104B90009F5F909395021092990210929A028091D1
:104BA0009B02181624F40E94DD2380939B028091BF
:104BB0009B0287FF05C00E94DD23819580939B02A5
:104BC00080919C02181624F40E94DD2380939C029D
:104BD00080919C0287FF05C00E94DD238195809310
:104BE0009C0230919B023323E1F020919C0222230E
:104BF000C1F045EB3403C0011124992319F09093BF
:104C00009B0203C081E080939B0235EB2303C0012C
:104C10001124992319F090939C0203C081E08093A2
:104C20009C020E940325809193029091940290939C
:104C3000900280938F0286E0FE013196A7E9B2E0F0
:104C400001900D928A95E1F726960FB6F894DEBF93
:104C50000FBECDBFDF91CF910895E7E9F2E086E086
:104C6000DF011D928A95E9F7109295021092960243
:104C70000895833081F128F4813059F08230D1F0E9
:104C80000895853009F449C0B8F1863009F456C05A
:104C9000089580912A01262F30E0280F311D2F3FE3
:104CA000310524F4680F60932A0108958FEF8093F3
:104CB0002A01089580912901262F30E0280F311D07
:104CC0002F3F310524F4680F6093290108958FEF79
:104CD00080932901089580912801262F30E0280F24
:104CE000311D2F3F310524F4680F6093280108958A
:104CF0008FEF80932801089580912701262F30E0BF
:104D0000280F311D2F3F310524F4680F60932701D0
:104D100008958FEF80932701089580912401262F15
:104D200030E0280F311D2F3F310524F4680F6093C8
:104D3000240108958FEF8093240108958091230129
:104D4000262F30E0280F311D2F3F310524F4680F46
:104D50006093230108958FEF80932301089583309A
:104D600011F128F4813049F0823091F008958530B6
:104D700081F120F18630C1F1089580912A016817F0
:104D800020F4861B80932A01089510922A01089529
:104D900080912901681720F4861B809329010895CA
:104DA00010922901089580912801681720F4861B2C
:104DB0008093280108951092280108958091270179
:104DC000681720F4861B809327010895109227010D
:104DD000089580912401681720F4861B8093240194
:104DE000089510922401089580912301681720F4FA
:104DF000861B8093230108951092230108950F9339
:104E00001F9341E050E060E070E08A019B0104C024
:104E1000000F111F221F331F8A95D2F7C901B80155
:104E20000E94E81E1F910F910C94DB1A8B3109F43C
:104E300074C058F58B3009F492C078F4863009F4C8
:104E400046C020F4853009F44CC08BC0873009F48B
:104E500056C0883009F483C084C0803109F470C022
:104E600068F48E3009F07DC080918D0282FB22278C
:104E700020F991E0922790FB82F958C0863109F41D
:104E80006EC0893109F46BC06CC08A32E9F060F4FD
:104E9000873209F461C028F48E3108F462C08D5164
:104EA0005CC08932F1F05DC0833450F48A3308F07D
:104EB00051C0853309F450C0883309F450C051C043
:104EC000833409F449C04DC00E941A2248C0809121
:104ED0008D02817F8E7F80938D0281E080939E0280
:104EE00008950E94DB1A2FEF83ED90E3215080405C
:104EF0009040E1F700C000000E94582330C080912C
:104F00008D02982F9095917090FB80F980938D027F
:104F1000911125C0897F877F10C080918D0281FB10
:104F2000222720F991E0922790FB81F980938D024E
:104F30009923A9F080918D02816080938D020FC02A
:104F400080918D0283FB222720F991E0922790FB2C
:104F500083F9ECCF895301C080E00E94FF2681E0F5
:104F6000089580E0089580E008950C94B3278E5151
:104F70008A3030F4E82FF0E0E353FE4F808108954B
:104F800080E00895CF93C82F80919E02813051F028
:104F900018F0823099F17DC00E94C020823209F061
:104FA0007AC004C00E94C020823261F48C2F0E941B
:104FB000B527811104C08C2F0E9416271DC081E0E7
:104FC00090E01AC08C2F0E94B327811114C0C43105
:104FD00079F048F4CB3079F0C03109F060C082E05C
:104FE00080939E0208C0C93219F0C83321F057C01F
:104FF00010929E0254C081E0817053C0C93289F181
:1050000018F5C43171F1B0F4C73009F046C08EE133
:1050100080932A0182E3809329018AE0809328010A
:1050200084E18093270188E08093240188E28093C3
:10503000230133C082EE8C0F863078F58C2F0E94CE
:10504000B72780939D0229C0CE34E9F020F4CB34F9
:1050500021F56AE013C0C13579F0C235F1F461E0A1
:105060000DC080919D02882319F010929D0215C0F9
:1050700081E080939E0215C061E006C080919D0290
:105080000E9439260AC06AE080919D020E94AF26E4
:1050900004C010929E0280E004C081E002C080E063
:1050A000ABCFCF9108958091A7020895CF93DF935E
:1050B00000D01F92CDB7DEB79091F602943019F56B
:1050C00089837B836A8382E08093E9008FEF9091EC
:1050D000E800815095FD06C095ED9A95F1F7000026
:1050E0008111F5CF8091E80085FF0DC040E050E0D0
:1050F00063E070E0CE0101960E949E2A8091E80054
:105100008E778093E8000F900F900F90DF91CF91F2
:105110000895CF93DF93EC010E94812A823011F031
:10512000843031F4BE0184E0DF91CF910C94562895
:10513000DF91CF910895BC0183E00C945628CF9362
:10514000DF93EC010E94812A823011F08430F9F45F
:1051500082E08093E9008FEF9091E800815095FD07
:1051600006C095ED9A95F1F700008111F5CF809179
:10517000E80085FF0CC040E050E066E070E0CE0142
:105180000E949E2A8091E8008E778093E800DF914C
:10519000CF910895CF93DF93EC010E94812A823052
:1051A00011F0843039F581E08093E9008FEF909120
:1051B000E800815095FD06C095ED9A95F1F7000045
:1051C0008111F5CF8091E80085FF14C040E050E0E8
:1051D00068E070E0CE010E949E2A8091E8008E7700
:1051E0008093E80088E0FE01AFE9B2E001900D9203
:1051F0008A95E1F7DF91CF9108958091F5028111B1
:1052000009C00E942F2C0E948C2C8091E2008460A7
:105210008093E20008951092F5020895089508958C
:105220000C94C02242E061EC81E00E94A82B42E293
:1052300061EC82E00C94A82B8091F802833009F491
:1052400060C030F4813071F0823009F499C0089563
:105250008A3009F485C08B3009F46BC0893009F0BD
:10526000A7C020C08091F702813A09F0A1C08091C7
:10527000E800877F8093E8008091FB029091FC0218
:10528000892B21F468E08FE992E003C060E080E0C0
:1052900090E070E00E94E92A8091E8008B7780938B
:1052A000E80008958091F702813209F081C0809171
:1052B000FB029091FC02029708F07AC08091E8000E
:1052C000877F8093E8008091E80082FD05C080918F
:1052D000F6028111F8CF6CC02091F3008091F200AA
:1052E00090E0922B029729F48091F1008B7F81301E
:1052F00021F48091F1008093A7028091E8008B77E0
:1053000053C08091F702813A09F052C08091FB02AC
:105310009091FC02892B09F04BC08091E800877FB7
:105320008093E8008091E80080FFFCCF80913501F8
:1053300036C08091F7028132D9F58091FB029091BD
:10534000FC02892BA9F58091E800877F8093E80013
:105350000E94DD2B8091F902809335010C94DB1AB9
:105360008091F702813221F58091E800877F809358
:10537000E8000E94DD2B8091FA028093A802089534
:105380008091F702813AA1F48091E800877F8093B1
:10539000E8008091E80080FFFCCF8091A802809314
:1053A000F1008091E8008E778093E8000C94DD2B6B
:1053B000089584B7877F84BF0FB6F894A89580912D
:1053C0006000886180936000109260000FBE90E0E2
:1053D00080E80FB6F89480936100909361000FBE4F
:1053E0000E9417160E942F2C0E948C2C8091E200A4
:1053F00084608093E20078940E94212F0E941D1601
:105400008BE291E00E94B1158091F602853069F43B
:105410000E948B228091F4028823B1F30E947322B0
:10542000882391F30E94882AEFCF0E942916ECCF9F
:105430000C941A2A292F332723303105C9F060F440
:105440002130310581F02230310509F04AC08BE36B
:1054500090E021E536E049C02132310511F12232D8
:10546000310579F13EC082E190E02CE836E03DC0A4
:1054700099278130910561F040F08230910559F013
:10548000039779F5EBE0F6E008C0EDE4F6E005C03F
:10549000EDE3F6E002C0E1E1F6E0849190E09F01E7
:1054A00024C06115710541F061307105D1F489E0C6
:1054B00090E02CE736E019C089E090E023E636E082
:1054C00014C06115710541F06130710551F481E836
:1054D00090E02EE936E009C080E490E02FE137E06B
:1054E00004C080E090E020E030E0FA0131832083C6
:1054F00008958091F602843011F081E0089582E0F1
:1055000008958091A902811102C00C94792A08950E
:1055100080E189BD82E189BD09B400FEFDCF8091A3
:10552000D8008F7D8093D8008091E00082608093C6
:10553000E0008091E00081FDFCCF0895CF92DF92E2
:10554000EF92FF920F931F93CF93DF93EC018B01A8
:105550007A010E94FC2B811133C0E114F10439F06F
:10556000F70180819181081B190BC80FD91FC12C2D
:10557000D12C0115110519F18091E80085FD16C0A7
:105580008091E8008E778093E800E114F10449F0FF
:10559000F70180819181C80ED91ED182C08285E039
:1055A0000FC00E94FC2B882321F30AC089918093AD
:1055B000F10001501109FFEFCF1ADF0ADACF80E0C6
:1055C000DF91CF911F910F91FF90EF90DF90CF90DF
:1055D00008952091FD023091FE022617370748F00A
:1055E0006115710539F42091E8002E772093E800C9
:1055F00001C0B901FC0120E06115710579F18091CC
:10560000F6028823F1F18530F1F18091E80083FD05
:105610003CC08091E80082FD2EC08091E80080FFB0
:10562000EBCF2091F3008091F20090E0922B611576
:10563000710551F08830910538F421912093F100E3
:10564000615071090196F3CF21E0089709F020E03D
:105650008091E8008E778093E800CECF2111CFCFE4
:105660000AC08091F602882361F0853061F0809154
:10567000E80083FD0AC08091E80082FFF2CF80E05D
:10568000089582E0089583E0089581E008952091CF
:10569000FD023091FE022617370748F061157105AB
:1056A00039F42091E8002E772093E80001C0B90179
:1056B000FC0120E06115710591F18091F6028823CB
:1056C00009F440C0853009F43FC08091E80083FDB3
:1056D0003DC08091E80082FD2FC08091E80080FFEE
:1056E000E9CF2091F3008091F20090E0922B6115B8
:1056F000710559F08830910540F424912093F10010
:105700003196615071090196F2CF21E0089709F0B6
:1057100020E08091E8008E778093E800CBCF2111C4
:10572000CCCF0AC08091F602882361F0853061F009
:105730008091E80083FD0AC08091E80082FFF2CFEB
:1057400080E0089582E0089583E0089581E008955F
:10575000982F973068F59093E900981739F0709179
:10576000EC002091ED005091F00003C0242F762F23
:1057700050E021FD02C09F5FECCF3091EB003E7FF7
:105780003093EB003091ED003D7F3093ED00309190
:10579000EB0031603093EB007093EC002093ED0050
:1057A0005093F0002091EE0027FDE5CF80E00895B2
:1057B0008F708093E90081E008958091F70287FF60
:1057C00011C08091E80082FD05C08091F602811130
:1057D000F8CF11C08091E8008B770BC08091F60262
:1057E000882349F08091E80080FFF8CF8091E8009D
:1057F0008E778093E80008952091E4003091E500D1
:1058000095E64091EC00842F817040FF23C0809189
:10581000E80080FD1DC08091F602882399F0853054
:1058200099F08091EB0085FD11C04091E40050910A
:10583000E5002417350729F3915011F09A01E1CFC3
:1058400084E0089582E0089583E0089581E008955A
:1058500080E008954091E80042FFDDCF08950E9466
:105860009D2C0E94A52CE0EEF0E080818160808379
:10587000E8EDF0E080818F77808319BCA7EDB0E080
:105880008C918E7F8C9380818F7E80831092F50225
:1058900008950F931F93CF93DF930E949D2C0E9436
:1058A000A52CC8EDD0E088818F77888388818068B7
:1058B000888388818F7D888319BC1092F6021092AC
:1058C000F2021092F4021092F30200EE10E0F801DE
:1058D00080818B7F808388818160888342E060E063
:1058E00080E00E94A82BE1EEF0E080818E7F808333
:1058F000E2EEF0E080818160808380818860808337
:10590000F80180818E7F8083888180618883DF9128
:10591000CF911F910F910895E8EDF0E080818F7E87
:105920008083E7EDF0E080818160808384E082BF46
:1059300081E08093F5020C94492CE8EDF0E0808141
:105940008E7F80831092E20008951092DA00109208
:10595000E10008951F920F920FB60F9211242F931A
:105960003F934F935F936F937F938F939F93AF93E7
:10597000BF93EF93FF938091E10082FF0BC0809172
:10598000E20082FF07C08091E1008B7F8093E100FD
:105990000E94202F8091DA0080FF1FC08091D800E4
:1059A00080FF1BC08091DA008E7F8093DA008091A7
:1059B000D90080FF0DC080E189BD82E189BD09B4B5
:1059C00000FEFDCF81E08093F6020E94FD2805C015
:1059D00019BC1092F6020E940B298091E10080FF11
:1059E00019C08091E20080FF15C08091E2008E7F97
:1059F0008093E2008091E20080618093E2008091D8
:105A0000D80080628093D80019BC85E08093F602AC
:105A10000E940F298091E10084FF30C08091E20054
:105A200084FF2CC080E189BD82E189BD09B400FEFC
:105A3000FDCF8091D8008F7D8093D8008091E100C8
:105A40008F7E8093E1008091E2008F7E8093E20060
:105A50008091E20081608093E2008091F2028823CD
:105A600011F084E007C08091E30087FD02C081E06F
:105A700001C083E08093F6020E9410298091E1002A
:105A800083FF29C08091E20083FF25C08091E1005F
:105A9000877F8093E10082E08093F6021092F20209
:105AA0008091E1008E7F8093E1008091E2008E7F03
:105AB0008093E2008091E20080618093E20042E006
:105AC00060E080E00E94A82B8091F00088608093C5
:105AD000F0000E940E29FF91EF91BF91AF919F912D
